:10000000401C0020811F0000516500006D1F000092
:100010006D1F00006D1F00006D1F0000000000003C
:10002000000000000000000000000000F9200000B7
:100030006D1F000000000000952000006D1F0000F3
:1000400095220000952200009522000095220000D4
:1000500095220000952200009522000095220000C4
:1000600095220000952200009522000095220000B4
:1000700095220000952200009522000095220000A4
:100080009522000095220000952200009522000094
:100090009522000095220000952200009522000084
:1000A0009522000095220000952200009522000074
:1000B0009522000095220000952200009522000064
:1000C0009522000095220000952200009522000054
:0C00D000952200009522000095220000FF
:1000DC0053B94AB9002908BF00281CBF4FF0FF31A3
:1000EC004FF0FF3000F00CB8ADF1080C6DE904CE08
:1000FC0000F010F8DDF804E0DDE9022304B07047ED
:10010C00704700BF034613F8012B002AFBD1181AC5
:10011C00013870472DE9F04786468C460846089E04
:10012C00154674461946002B40F0C2808542B2FA3F
:10013C0082F245D94AB1C2F1200300FA02FC2EFA30
:10014C0003F3954043EA0C0C94404FEA154EA8B2C9
:10015C00BCFBFEF8230C0EFB18CC08FB00F943EAA1
:10016C000C43994528D9EB1808F1FF3704D299456F
:10017C0002D9A8F102072B44A3EB0903A4B2B3FBE9
:10018C00FEFC0EFB1C330CFB00F044EA0344A042C3
:10019C0014D92C190CF1FF3304D2A04202D9ACF1C2
:1001AC0002032C44241A43EA07401EB1D440002316
:1001BC0034607360BDE8F0874746DDE76346F1E7DE
:1001CC0092BB431B01214FEA154EAFB2B3FBFEFCB1
:1001DC00200C0EFB1C330CFB07F840EA034398453C
:1001EC0062D9EB180CF1FF3004D2984502D9ACF16E
:1001FC0002002B44A3EB0803A4B2B3FBFEFC0EFBE2
:10020C001C330CFB07F744EA0344A7424ED92C19C4
:10021C000CF1FF3304D2A74202D9ACF102032C44F7
:10022C00E41B43EA0040C0E7C2F1200320FA03F1CB
:10023C00954090402EFA03F303434FEA154EAFB2AC
:10024C00B1FBFEFC0EFB1C10190C0CFB07F841EA71
:10025C000041884504FA02F422D969180CF1FF30E8
:10026C0004D2884502D9ACF102002944A1EB080163
:10027C009BB2B1FBFEFC0EFB1C110CFB07F743EA17
:10028C0001439F420ED9EB180CF1FF3104D29F426F
:10029C0002D9ACF102012B44DB1B41EA004192E78D
:1002AC006046E3E76146F7E76046A3E76346B7E7D6
:1002BC00834206D916B9002108467BE7C6E900E05F
:1002CC00F9E7B3FA83F78FB9834201D3724508D8A3
:1002DC00BEEB020460EB030301209C461EB9002117
:1002EC0068E73846FAE7C6E9004CF8E7C7F1200C96
:1002FC00BB4022FA0CF41C432EFA0CF120FA0CF33E
:10030C00B84001434FEA14490EFA07F5B3FBF9F86C
:10031C001FFA84FE09FB18300B0C08FB0EFA43EA9B
:10032C0000439A4502FA07F240D9E31808F1FF306E
:10033C0004D29A4502D9A8F102002344A3EB0A0384
:10034C0089B2B3FBF9F809FB183308FB0EFE41EA3E
:10035C0003418E452CD9611808F1FF3304D28E4528
:10036C0002D9A8F10203214443EA0040A0FB029801
:10037C00A1EB0E014145CE46434602D306D14D4575
:10038C0004D2B9EB020E68EB04030138002EA6D0A0
:10039C00B5EB0E0261EB030101FA0CFC22FA07F338
:1003AC004CEA0303F940C6E9003198E74046C5E73B
:1003BC004346D9E738B503F09DFE164B984227D13A
:1003CC00154B16481B884FF4167213FB02F3002BC7
:1003DC00B8BF03F6FF73124A1B13102105F030F857
:1003EC00041E15DD4FF0FF324FF0FF330D4804F0C3
:1003FC00E7F90D4B1868836808495D6822464FF091
:10040C00FF33A84720B10748BDE8384004F0A4B931
:10041C0038BD00BF0000AD0BF40A0020F60A002026
:10042C002C82000060010020800900200B7813B999
:10043C00014804F091B970476001002037B50022E3
:10044C000121072001F080FE012003F073FD194B00
:10045C009842054614D1184805230121837003F0F6
:10046C00AFFDA84204460BD100231A4602210120FD
:10047C0003F0D0FDA04203D11048012103F0FAFD96
:10048C0011220023CDE900230D480E4C002200233D
:10049C0004F09EFF0C48206007F084FA30B120680D
:1004AC0083681B6813B1094900229847002003B0E8
:1004BC0030BD00BF0000AD0BC4000020F40A0020CA
:1004CC001801002080090020507E00003904000033
:1004DC002DE9F04F91B08407009302F004030293CE
:1004EC00C2F3C20303F10103DDF8688003920546F1
:1004FC000E46059340F0BA81041D30B1072909D886
:10050C006FF01B0011B0BDE8F08F01F0070634440A
:10051C00C6F10806009B4FF00009591E4FF0040A63
:10052C004FF0FF330193CDF810904F46CB46534616
:10053C000DB1009A22600598002800F3E8809848D5
:10054C00009A824203D397488242C0F0E080039A1B
:10055C00A4EB050E92074FEA9E0000F103810F2FCA
:10056C0000F2B180002D00F0058107F140020DEB87
:10057C00020C019A0CF8200C0CF8102C0498013089
:10058C000490E7E07A285DD84B280ED8472859D834
:10059C0029282DD8252852D054D820287AD0233871
:1005AC00D0F1000B4BEB000B74E04C382E2849D8E3
:1005BC00DFE800F0704848484848484848484848F0
:1005CC004B484848484848484859484B4B59595952
:1005DC00704B6D487048184B184848827F4B484800
:1005EC004B487F0000204FF0000B4FF0040A38E01E
:1005FC002A38C0B2012202FA00F010EA0E0F49D1DB
:10060C0010F0625C2FD110EA020B43D06046013C23
:10061C005444B4FBFAF40AFB04F4002D61D0A3EBB0
:10062C00050CA444B4453FF66BAF002868D1042BED
:10063C0047D158F8043B2360043404232AE0019A80
:10064C00013A01924FF0000B24E011F8010C6C28D8
:10065C0034D111F8023C00206C2B8346C5D14FF0ED
:10066C00080A5346D3E708F1070828F007080734AF
:10067C00F8E802AB24F0070435B106982044B042E8
:10068C003FF63EAFC4E900AB08344FF0000B4FF01F
:10069C00080A534611F8010F002878D0BBF1000F5F
:1006AC007FF470AF2528F5D1019B013301934FF0F6
:1006BC00010B4FF0040AECE7584694E70020834600
:1006CC00A5E7082B02D06FF015001BE708F107080F
:1006DC0028F00708F8E80223C4E9002308340823AB
:1006EC00D8E768B9042B02D108F10408A4E7082B59
:1006FC00E9D108F1070828F0070808F10808EDE728
:10070C00059A013A059258F8042B009210E7039AC7
:10071C00900720D5A4EB050E4FEA9E004FF0010C7C
:10072C00BEF5007FCFD20F2FCDD8F5B107F1400227
:10073C000DEB020EC0B2019A0EF8200C0EF8102C24
:10074C00BCF1000F3FF41AAF60F07F000EF8200CE4
:10075C0009F101090137C5F10802043406924FF67C
:10076C00DA7E97E74FF0000CDAE7BCF1000F01D00E
:10077C000136EFE7029802360028EBD10098CDE95C
:10078C000631FFF7BFFCDDE906310644E2E7631BE7
:10079C00B3F5806F97D23DB9A6F10804E018B1E625
:1007AC00C87D0000708A0000029A28609B082B709C
:1007BC009DF81030C2B1EB7085F80290B9F1000FC2
:1007CC0005D008A80022C5F1010C97420ED1C5F145
:1007DC0001030DF120084FF0000A01930DF1300BCD
:1007EC00574512D1601B8DE66B70E5E710F8013BA5
:1007FC00190608D50CEB040EB64503F07F033FF643
:10080C007FAE04F8013B0132DFE7B9F1000F03D0F2
:10081C0098F90020002A17DB029BD3B11AF80B20A1
:10082C0004F8012B0022019B18191044B0423FF62A
:10083C0067AE98F8000004F8010B0099039220466B
:10084C0007F007FA039A14440AF1010A08F10108A7
:10085C00C6E798F8002055F822300093029B45F823
:10086C0022300098FFF74EFC421CDCE76FF00D00C5
:10087C0048E600BF2DE9F04F97B000AF90F802A00A
:10088C00D7F880B03B62CBF3C0030446FA62BB617D
:10089C00894641B9457800780AEB800020444D45E3
:1008AC0017D8A0EB0409E378FB61BAF1000F02D072
:1008BC001BF0010F16D1FB6953BBFB6A1BB13A6AE3
:1008CC004946204698474D4628465C37BD46BDE80C
:1008DC00F08F461C3046FFF715FC0130304409F10F
:1008EC000109DCE7237862687A62FA6A9900796117
:1008FC0004EB8301002A40F000814D460E4601EBCB
:10090C000A094FF000084E454CD101EB0A0610E0E5
:10091C001BF0020FD1D023789A007A6162687A6258
:10092C00FA6A04EB8301002A77D14D4601EB0A06E3
:10093C0090461BF0050F0CBF02230123FB62FB69E1
:10094C0006EB430A0BF00203BB625645BCD016F80B
:10095C00021B16F8013C54F82390994B994502D38D
:10096C00984B994536D3BB69002B40D0786A05F07B
:10097C0002F900283BD0E9468AB06A46924B536193
:10098C007B6AC2E906314FF4007313848F4B42F833
:10099C00103F8F4800234FF4125100F023FD023D0D
:1009AC00CD46D2E716F8013BF96254F82300FFF765
:1009BC00A9FBD7F88430F96A01304BB1D7F88830ED
:1009CC0098453EBFD7F8843023F8180008F1010889
:1009DC00054498E7BB6923B1786A05F0CCF8002888
:1009EC00C9D11BF0010F05D1FB6AED1AADE7BB6A4B
:1009FC00002BAAD04846FFF785FBD7F8843053B1BB
:100A0C00D7F8883098453FBFD7F88420431C22F88C
:100A1C00183008F10108054497E7BAF1000F72D0BD
:100A2C001BF0040672D0D046002607F1480052464F
:100A3C003B61B96207F00DF9B96A3B6901EB0A0237
:100A4C00BA62FA69F9695200FA60BA6A02EB4102B9
:100A5C003A610BF00202BA603A69B96A8A4257D11C
:100A6C0062787A621BF0020F32440CBF4FEA5801D5
:100A7C0000211BF0010FD2B240F09F801BF0040F3D
:100A8C0014BF40460020BB616270A070E1703A6AEE
:100A9C007969FB6A20469847051EFFF615AFBB69BE
:100AAC0023707B6A6370FB69E37041463A6AFB6AA8
:100ABC0084F802A007F148009847B0F10008C0F292
:100ACC00BB807B693A6AA9EB0A01C91AFB68C91A8F
:100ADC00D7E90A0398470028C0F2B080A84408EB75
:100AEC0000054FF0000B07F1380AB34572D3002113
:100AFC003A6AFB6A08469847E6E656464FF0000805
:100B0C0007F1380093E75646D04697E7B04695E78D
:100B1C00BA6A12F8021BBA6212F8015C284A54F83D
:100B2C002500904202D3274A90421ED3BA6932B1B3
:100B3C00786A7B6005F01FF87B6800288CD1BA6856
:100B4C0002BB08F1280207F1300C08F101009444B3
:100B5C0007F1580252FA80F008F102080CF8101C48
:100B6C005FFA88F800F8105C76E7BA693AB1786AEF
:100B7C007B6005F000F87B6800287FF46DAF1BF0FC
:100B8C00010F09D006F1280207F13000711C16186C
:100B9C0006F8205CCEB25FE71BF0040F3FF45CAFAD
:100BAC0008F1280207F1300008F1010102EB0008FE
:100BBC0008F8105C5FFA81F84EE7002063E700BF8D
:100BCC00C87D0000708A0000308200000400000123
:100BDC000C8000001BF80A3087F8373054F823904B
:100BEC00D7F884302BB3D7F888309B4521D2D7F86F
:100BFC00843033F81B803A6AFB6A012107F1370015
:100C0C00984700281ADB0544B8F1000F06D1484676
:100C1C00FFF778FA00F101081FFA88F83A6AFB6AC4
:100C2C00414648469847002808DB05440BF1010B68
:100C3C005BE74FF00008DEE7454645E6054643E630
:100C4C00014B1860704700BF0000002080B50546BE
:100C5C000E461746984604F0B1F8034607F0A4F880
:100C6C00DFF81890044649F80030424630463946C1
:100C7C00A84754F8090001F0F1F900BF0800000082
:100C8C002DE9F047058B04462807904611D402291C
:100C9C0005F0070540F0CC80204605F00AFA78B143
:100CAC000138218B042811D8DFE800F0C2106D85C3
:100CBC00950001290CBF45F0100545F02005258352
:100CCC0088F31188BFF36F8FBDE8F08701F0070A36
:100CDC00AA4500F0A5800027B9463E46A368002B24
:100CEC0000F0BC8041F00801218388F31188BFF328
:100CFC006F8FA168002900F0BA800D68002900F000
:100D0C00B680D1F80480334652462046C047002DA9
:100D1C0076D02B6829461D46F0E701F007035A1FD1
:100D2C00012A1BD8002221F00701062B276889B263
:100D3C00C4E9002209D13B4603E0628B0132628395
:100D4C001B68002BF9D141F002012183204605F0EC
:100D5C00B0F900287AD041F0200176E0042B0AD1BA
:100D6C0021F0070189B22183204605F0A2F910B1C8
:100D7C0041F020012183218B01F0070AAA454FD0B5
:100D8C000027B946AAE7236921F0070141F00601C3
:100D9C00062DD3F8009021832DD1B9F1000F3FD04F
:100DAC0041F00801218388F31188BFF36F8F3A4912
:100DBC002046C84729E021F00701236941F00401CE
:100DCC0089B2042DD3F804902183E6D000273E4647
:100DDC004FF0040A82E721F00701236941F0050175
:100DEC0089B2052DD3F808902183D6D000273E4632
:100DFC004FF0050A72E700273E464FF0060A6DE7F2
:100E0C002B4687E7B9F1000FD1D1EFF311882023DE
:100E1C0083F31288BFF36F8F238B23F00803238394
:100E2C00258BEA062ED525F01003238305F0070544
:100E3C006669218B002EBFF670AF00232768C4E9CA
:100E4C00003321F0070141F001012183218B01F0D6
:100E5C00070AAA454FF000097FF440AF002F9CD041
:100E6C0041F00801218388F31188BFF36F8F002FA5
:100E7C00C8D03D68394633465246204605F045F900
:100E8C002F46F4E7AB067FF51BAF25F02003238339
:100E9C0005F0070500E700BF436100002DE9F047AE
:100EAC00DFF85880044607464FF0010914B938465C
:100EBC00BDE8F08794FAA4F5B5FA85F509FA05F3BF
:100ECC002E0108EB05156FEA030A24EA03042B7BB9
:100EDC00002BEBD058F806301B694BB94644042262
:100EEC0073682846196807EA0A0705F0EEF9DDE78A
:100EFC00284698470028D9D1F0E700BF548000005D
:100F0C0030B51049104889B0002206F07AFE0F4D1A
:100F1C000F4900220023CDE9062300240E23CDE93E
:100F2C000334CDE901440B4B00944FF44072284636
:100F3C0003F0F2FC0849284603F068FC204609B08F
:100F4C0030BD00BF690F0000280600207001002092
:100F5C00400B002095120000E4820000014803F0D1
:100F6C00FBBB00BF500100202DE9F0478046214813
:100F7C000F4605F08AF90646002833D0002528468E
:100F8C00BDE8F087237B83B12368DB680BB1204677
:100F9C009847636883F8069023681B69D3B9636824
:100FAC0004221968204605F090F901361034544596
:100FBC00E8D3B8F1000FE2D0002DDFD02846FFF7C0
:100FCC006DFF0546002FF7D000214FF4A47006F0FA
:100FDC00ACFDF1E7204698470028E0D009FA06F36B
:100FEC001D43E2E7044CDFF814A005464FF001095D
:100FFC00DDE700BF940900205480000064800000ED
:10100C00014B53F820007047CC80000008B5034614
:10101C0008462BB1044A136000F07AFC002008BD8E
:10102C006FF01500FBE700BF0400002010B5044C66
:10103C00237813B9034803F08FFB0123237010BDF1
:10104C00060B00205001002010B504460B4805F09B
:10105C001CF95CB1BFF35B8F094B53E8001F0139DE
:10106C0043E80012002AF8D1BFF35B8F054806F065
:10107C00D4FD0548BDE8104003F06EBB8C09002080
:10108C009009002028060020500100200020064B6B
:10109C00BFF35B8F014653E8000F43E80012002AB0
:1010AC00F9D1BFF35B8F70478C09002070B5FFF747
:1010BC00EDFF084C084E0546B44200D370BD636882
:1010CC005B792BB123685B6813B12946204698479E
:1010DC001034F1E7548000006480000010B5044C1B
:1010EC000449204604F07EFE034B1C6010BD00BF7B
:1010FC00D8000020B8800000840900200D4A0E485A
:10110C00002310B513700D4A13600D4A4FF40041C3
:10111C001360FFF77BFFFFF7E1FF0A4B0A49184604
:10112C008B4200D310BD1A1A5C6812110132227165
:10113C001033F5E7070B0020936200008C090020A8
:10114C0090090020548000006480000001460022B9
:10115C000148002304F067BED8000020014804F0C9
:10116C0000BF00BFD8000020024B0146186804F0F5
:10117C004CBF00BF84090020014804F081BF00BFB0
:10118C00D800002070B5294B187800284DD0FFF7F7
:10119C00E5FF0546002845D1254B264C1B68002B46
:1011AC0019DD06F02CFD4FF47A72A0FB020302FB52
:1011BC000131C30BD4E9002043EA41439B1A4FEAA7
:1011CC00D13140F2E93261EB0001934271F100013F
:1011DC0001D3FFF76BFFD4E9003213F57A7342F1B8
:1011EC000002C4E90032BDE87040FFF7C5BF636878
:1011FC005B7923B1236829461B6820469847103435
:10120C00B442F4D32846FFF7AFFFBFF35B8F0A4B12
:10121C0053E8001F013943E80012002AF8D1BFF34C
:10122C005B8FB9E7054C064EEAE770BD060B002054
:10123C008C0900202006002090090020548000001A
:10124C006480000070B50D4D297861B90120FFF75D
:10125C008BFE0B4C0B4EB44206D3FFF793FF0028CA
:10126C00FBD101232B7070BD63685B791BB12368C4
:10127C0020469B6898471034EDE700BF070B002011
:10128C00548000006480000000212DE9F0470846DE
:10129C00FFF76AFE044658B340F267684FF0000946
:1012AC0006F082FD1B4B1C4A1B58136033B11B4BC1
:1012BC001B68092B02DD1A4803F04EFA194FDFF8B0
:1012CC0060A0002544B12046FFF7E8FD044618B99C
:1012DC004FF0FF384FF0FF39FFF754FF064628B99F
:1012EC00B5B942464B46504603F06AFA3546E9E733
:1012FC004FF0FF384FF0FF39D2E72B689B691BB1D9
:10130C0000221146284698471035BD42F5D3E8E730
:10131C00054DFAE70800000088090020900900201C
:10132C0050010020648000005480000013B5184860
:10133C0004F0ABFF174B1B7873B1EFF31184202330
:10134C0083F31288BFF36F8FFFF71CFF84F31188B0
:10135C00BFF36F8F02B010BD0F4B1B68002BF9D081
:10136C0050B900220023CDE900230C484FF4004271
:10137C00002304F02DF8EDE70928EBD1074806F01F
:10138C004CFC074802B0BDE8104003F0E5B900BFC3
:10139C0090090020070B0020880900202806002057
:1013AC005001002010B5064B1B6804469847214697
:1013BC00A060044804F0B6FDBDE81040FFF7B6BFCE
:1013CC0004000020D8000020044A054B9B1AB1EB06
:1013DC00D30F34BF52F83100002070470C8000004E
:1013EC00548000002DE9F04F8FB004AFC1F34A28B0
:1013FC00B8600D4691467B600C0DB8F1000F63D0C0
:10140C00002607F114034FF0040B4FF00A0AC7F83B
:10141C000C80C7E907667E620193CDF808B0CDF861
:10142C0000A007F11C03F96832464846FFF722FA80
:10143C00B0F5006F03461CD36C468AB0D9F8041083
:10144C0004AB2648C3E9050140F2FF71D9611A4685
:10145C004FF400711984224B42F8103F2148334657
:10146C004FF41251FFF7BEFFA5462C37BD46BDE821
:10147C00F08FC0F30A0804F11700184420F007009D
:10148C0080083B60FFF762FE68F35325044690B179
:10149C003B68154AC7E9083600F1100107F114033F
:1014AC00F961CDE900A3CDF808B0F96807F11C0388
:1014BC004846FFF7DFF968F353257B68B9682A467D
:1014CC00204604F022FFD0E704F1170020F00700BB
:1014DC008008FFF73BFE0446EDE700BFF9820000F1
:1014EC00040000011C800000E96200002DE9F04FAF
:1014FC0087B0DDE91279DDE9105A04460391934671
:10150C009846BFB1CDF800903B46524610210020C2
:10151C00CDF81490FEF7DCFFB0F5006F06460AD349
:10152C00184A194840F2FF73022107B0BDE8F04F8A
:10153C0004F044BF3E4605F11700304420F007008C
:10154C0004F007048008FFF701FE0BF0070BE40022
:10155C0044EA8B1444EA462444EA0554054640B157
:10156C003FB1CDF800903B46524631461030FEF765
:10157C00AFFF039943462246284607B0BDE8F04F1B
:10158C0004F0C3BE388300001C800000406820B10A
:10159C00034BC01A40F3CF0070474FF0FF30704739
:1015AC000C8000000EB403B503AB014653F8042BBA
:1015BC000448019300F0F0FF02B05DF804EB03B0B7
:1015CC00704700BF13640000CA0605D48B064CBFDD
:1015DC0002490349FFF7E6BF704700BF7183000063
:1015EC00708300002DE9F04F89B09B46149B069345
:1015FC009DF84CA0159B0593169B179E04930446CF
:10160C000D469046BAF1000F00F09D8006F48073F1
:10161C00079304F058FE06F00209024600283ED05B
:10162C0091492046FFF7BEFF0746B9F1000F08D0DD
:10163C0016F0440F35D18D492A462046FFF7B2FFEC
:10164C00074406F0010353B1894B8A4953F82A2009
:10165C00894B2046002A08BF1A46FFF7A3FF06F461
:10166C008073002B49D006F00803002B63D1B8F12E
:10167C00000F66D0814942462046FFF793FF05468E
:10168C00069B3D44002B6DD1049B002B73D1F307BB
:10169C0000F1E48031462046FFF796FFD8E007467C
:1016AC00C3E7774B18680028CAD0764B4FF47A7989
:1016BC001B68B5FBF3F54FF46163B5FBF0F100FB70
:1016CC00115509FB05F54FF03C0CB1FBF3F203FB94
:1016DC001211B5FBF0FEB1FBFCF300FB1E550CFB2D
:1016EC00131109FB05F50091B5FBF0F56649CDE941
:1016FC0001E52046FFF756FFA2E706F00803EBB121
:10170C00624B634953F82A202046FFF74BFF0546EE
:10171C00B8F1000F05D0594942462046FFF742FF69
:10172C000544BBF1000FABD05A495A462046FFF78F
:10173C0039FF0544A4E74FF0000BE1E706F008057C
:10174C00E6E745469CE7BBF1010F069B06D1002B53
:10175C0064D1049B002B7BD000250CE0002BF8D02F
:10176C004D485CE04D48069B4D49224604F0D2F9A9
:10177C00049B002B68D0DFF82C81DFF82C91049FA0
:10178C003146102F204628BF1027FFF71DFF4FF0C2
:10179C00000B5D4545DC059B49461A782046FFF752
:1017AC0001FF4FF0010B1BF0070F03D14146204600
:1017BC00FFF7F8FE5F453BD9059B494613F80B2014
:1017CC002046FFF7EFFE0BF1010BBBF1100FEAD136
:1017DC00364920464FF0000BFFF7E4FE5A46059BB6
:1017EC009A5CA2F120015F2928BF2E2230492046A5
:1017FC00FFF7D8FE0BF1010BBBF1100F1DD01BF046
:10180C00070F03D141462046FFF7CCFE5F455A46F1
:10181C00E5D841462046FFF7C5FEEBE71F48554685
:10182C00A1E741462046FFF7BDFE0BF1010BB0E7E7
:10183C0020492046FFF7B6FEC5E7059B3B440593C0
:10184C00049BDB1B04939AD1BAF1000F7FF41FAFFA
:10185C00204609B0BDE8F04F04F0C8BD064A054962
:10186C002046FFF79FFE15E7788300007C8300007D
:10187C00DC800000A183000073830000A4830000BF
:10188C009C0900209809002085830000F08000004E
:10189C00A8830000AE8300004964000013640000BC
:1018AC00A5250000BB830000B3830000BD830000AE
:1018BC00BF830000B983000073B542F20F738B42F3
:1018CC0028BF0B4605680F4A04460521684603F0FD
:1018DC00B7FD63680C495B6806460B22284604F08A
:1018EC0077FD63683246694628465B6804F070FDF4
:1018FC00636806495B681B22284604F069FD02B048
:10190C0070BD00BF32850000DE830000C283000082
:10191C00074A00210123904206D8064A01B9012347
:10192C001360054B1860704740085B000121F2E71B
:10193C0040420F00980900209C090020F8B5074F81
:10194C000D4604464618B44201D12846F8BD14F899
:10195C00011BBB680148DB699847F4E7507E000027
:10196C00014B0360002070473881000008B5044823
:10197C0004F028F9BDE80840024804F023B900BF80
:10198C00248400005984000008B50348034A002150
:10199C00121A04F0CFFD08BD700100201C0B0020B2
:1019AC000748084A084908B5121A04F0C5FD07484B
:1019BC00074A0849BDE80840121A04F0BDBD00BF33
:1019CC000000002070010020708A00000000002040
:1019DC0000000020708A00002DE9F047064600AF99
:1019EC000C46002936D0E9468AB0D1E90012A3682A
:1019FC006D462148A8464FF0050AC5E90501C5E921
:101A0C00072348F810AF1D48424600234FF42151DC
:101A1C00FFF7E8FCCD46D4E903126369AD461848DC
:101A2C00C5F810A0C5E90501C5E907231348002333
:101A3C0042464FF42151FFF7D5FCCD46E369114ADC
:101A4C000E48012104F0BAFCA3690F4A0B4801218E
:101A5C0004F0B4FC012E07D1EFF305830B4A0748C1
:101A6C00103B314604F0AAFC2146304602F0E4FC5F
:101A7C00BD46BDE8F08700BF878400003C800000B5
:101A8C00B6840000E5840000F48400002285000088
:101A9C0030BFFFF7FDBF00BF2DE9F0410B4EDFF863
:101AAC00308006EB0807CC1B054632460949204618
:101ABC0006F0CFF8A01942460021083C06F0F1F8D8
:101ACC00C5F8A44007F10800BDE8F0810000000053
:101ADC0004000000A8800000054B5A699B689A42DC
:101AEC001FBF044A536843F080535360704700BFD4
:101AFC00C40A002000ED00E070B5294C06460D46E6
:101B0C002848294904F025FDA36AD9043CD5254869
:101B1C00264904F01EFD1720A36A1A0504D5214896
:101B2C00234904F016FD18201D4CA36A9B0512D501
:101B3C001C48204904F00DFDA36BA26A100409D5C2
:101B4C001D4A1848012104F039FC1EB1A36A23F484
:101B5C000043A3621920124CA36A590504D51148FD
:101B6C00164904F0F6FC1A20A36ADA050ED50D48C6
:101B7C00134904F0EEFC1B20094A936A43F47F439B
:101B8C00936200232B7070BD1620C5E7A36A9B04DB
:101B9C00F2D504480B4904F0DCFC1C20ECE700BF38
:101BAC0000ED00E03C800000358500004B85000016
:101BBC005C8500006F850000888500009D85000015
:101BCC00B8850000D085000010B5204C2049214874
:101BDC0004F0BFFCA36A990136D51E481E4904F0D7
:101BEC00B8FC1E20A36ADA0104D51A481B4904F07C
:101BFC00B0FC1F20154CA36A1B0304D515481849CB
:101C0C0004F0A7FC2120A36A590304D511481549F7
:101C1C0004F09FFC22200D4CA36A9A0304D50D48B6
:101C2C00114904F096FC2320A36ADB0304D5094870
:101C3C000E4904F08EFC2420044A936A6FEA034395
:101C4C006FEA1343936210BD1D20CBE700ED00E05B
:101C5C00FF8500003C800000178600002A860000EB
:101C6C00448600006286000087860000A186000082
:101C7C002DE9F843364D8046894636483649174695
:101C8C0004F067FCAB6ADE0627D53449314804F012
:101C9C0060FC1124AB6A1D0704D531492D4804F0B2
:101CAC0058FC12242A4DAB6A980718D52D4929489F
:101CBC0004F04FFC6E6BAB6A190646D52A4A2548D0
:101CCC003346012104F07AFBB9F1000F03D0AB6A63
:101CDC0023F08003AB62132403E01024DAE76FF0E7
:101CEC0015061B4DAB6ADA0704D52049194804F0D8
:101CFC0030FC1424AB6A9B0604D51D49154804F02E
:101D0C0028FC1524124B9A6AD50602D49A6A9007BD
:101D1C000AD55B68190507D54146304600F06AFACA
:101D2C0010B180F309880224094B9A6A920642BFCB
:101D3C005A6A22F400525A629A6A42F0FF029A627C
:101D4C0000233B702046BDE8F8836FF01506C2E710
:101D5C0000ED00E03C800000CC860000E286000034
:101D6C005C850000158700002D870000438700006C
:101D7C00D08500002DE9F041664B8AB0D3F8048081
:101D8C0000AF0446C8F30805002686F31188BFF39C
:101D9C006F8F02F07F43B3F17F4F07D102F00C033A
:101DAC00082B12D15C495D4804F0D3FB0026344665
:101DBC000023FB71EB1E092B00F28A80DFE803F095
:101DCC000A80837C88888888888610074CBF0C46DC
:101DDC000126EDE7524951484E4D04F0BAFB002361
:101DEC00FB71EB6A9A0705D54E494C4804F0B1FBE0
:101DFC00002332E0EB6A002B01DA4B49F5E7EB6A82
:101E0C005B00F5D54949454804F0A3FB6B69A26911
:101E1C0043F480736B61BFF34F8FBFF36F8F6B69AC
:101E2C0032F8022C23F480736B61BFF34F8FBFF336
:101E3C006F8F4DF602739A4208D0AB6ADBB273B364
:101E4C00FA1D01212046FFF713FF37E02368384ABB
:101E5C003248012104F0B2FA2368FA79DAB907F1B1
:101E6C00080504F1200C206861682A4603C2083476
:101E7C0064451546F7D17A6A002E45D0C2F30801A5
:101E8C0021B96FEA52226FEA42227A6207F1080105
:101E9C001846FFF7A1FD2837BD46BDE8F081AB6AB7
:101EAC0013F47F4F04D0F91D0120FFF725FE05E048
:101EBC00AB6AB3F5803F9BD3FFF786FE0346CCE7B6
:101ECC00FA1D0021BEE7F91D0020EEE719498CE749
:101EDC00194A1A4B18F4F87FE8468AB018BF134613
:101EEC006A461749C2E905134FF400731384103D79
:101EFC00144BD56142F8103F084800234FF41151A0
:101F0C00FFF770FAC54673E722F4FF7222F0010264
:101F1C00BBE700BF00ED00E0908700003C800000B4
:101F2C00BB870000D2870000F38700000188000007
:101F3C00208800003C880000778700006287000042
:101F4C006088000004000001044B5A6942F0100242
:101F5C005A615A6922F008025A61704700ED00E09C
:101F6C00EFF30880EFF3098101B57246FFF702FF2A
:101F7C0001BD00BF002080F31488BFF36F8F1148A0
:101F8C0080F3088800201049087001F0CBFA00207B
:101F9C000E490860BFF34F8F00F02EF8202080F31D
:101FAC0011880B484FF40461401880F30988EFF353
:101FBC0014800221084380F31488BFF36F8F00F064
:101FCC00E9F80000401C00201A0B002094ED00E002
:101FDC00800E00200749D1F890200023C2F307227D
:101FEC001846934200DB7047C1F89830C1F8A00046
:101FFC000133F6E700ED00E008B572B6002383F379
:10200C001388FFF7E7FF144B4FF0FF32C3F8802023
:10201C00C3F88420C3F88820C3F88C20C3F8902020
:10202C00C3F89420C3F89820C3F89C20C3F88021EF
:10203C00C3F88421C3F88821C3F88C21C3F89021FC
:10204C00C3F89421C3F89821C3F89C2162B6BFF35E
:10205C004F8FBFF36F8F08BD00E100E0084B9B680A
:10206C0083420BD1EFF3058343B1064B5A6842F020
:10207C0080525A605A6A22F400425A6202F0A4BE9C
:10208C00C40A002000ED00E015498A684FF03000CA
:10209C001044EFF3098C80E8F01F202080F31288A5
:1020AC00BFF36F8F0F4F4FF000664A698A603E6036
:1020BC00D2F8A4000C4C2060D2F8A8000023C2F87F
:1020CC00A83080F3118804B5104600F0FBF8BDE889
:1020DC00044002F1300090E8F01F8CF3098870473F
:1020EC00C40A002004ED00E0C40900201EF0040F17
:1020FC000CBFEFF30880EFF30980816911F8021C23
:10210C000229FFD001B5724604F018FA01BD00BFD8
:10211C0040B2002807DB044A4109012300F01F00EC
:10212C00834042F82130704700E100E0054B420942
:10213C0000F01F0053F82220012303FA00F0104096
:10214C00704700BF00E100E040B20028A8BF00F1DA
:10215C00604001F10101B8BF064B4FEA4111ACBF21
:10216C0000F5614000F00F00C9B2B4BF195480F8FB
:10217C000013704714ED00E0044B054A23F07F0375
:10218C009360BFF34F8FBFF36F8F70470000000059
:10219C0000ED00E008B5FFF7EFFF074AD2F88830F2
:1021AC0023F47003C2F88830FFF7EEFBFFF7F8FB5F
:1021BC0000F05EF802F068FA00ED00E042F8203C16
:1021CC00009B42F81C3C0A49019B42F8183C029BBC
:1021DC0042F8143C21F001014FF0807342F8043CAA
:1021EC0042F8081C0023203A0265C0F8A83070475A
:1021FC00590C00000A4A0346906878B113F1160F87
:10220C00D0F8940005D0A0F140029A4205D8834240
:10221C0003D2814228BF002070470020704700BFC6
:10222C00C40A002008B515460C4A0D4B9060D0F836
:10223C00A4201A600E4600F045F82C4686F3098857
:10224C000020044B98472046002100220023024C1A
:10225C002047000075650000590C0000C40A0020DE
:10226C00C4090020014B10221A61704700ED00E0F8
:10227C00044800232021C2180133272B82F80013B5
:10228C00F9D1704700E100E008B5EFF30583064A89
:10229C00103B02EBC30152F8330049688847BDE894
:1022AC000840FFF719BC00BF707E0000024B034AC8
:1022BC000348012100F08CB8000001200000002030
:1022CC0038810000D0F89420054B403A1A60054A3A
:1022DC004021C3E901121846012100F083B800BF68
:1022EC00C809002000000B1508B503461048D0F8AB
:1022FC009020C2F30722013A934207D90D480E4AA7
:10230C00012104F05BF86FF0150008BDC0F898309F
:10231C000A6822F01F021A4342F01002C0F89C20F7
:10232C008A6842F00102C0F8A0201846EDE700BF11
:10233C0000ED00E03480000077880000F0B50E4618
:10234C0085B01F4604460025B5420DDA606810B30F
:10235C0097B1431E18420AD0104A11482B4601214E
:10236C0004F02CF86FF01502104605B0F0BD1F28D4
:10237C00F2D921680B42EFD12368019304F017F9CD
:10238C00A36801A90343D0B20393FFF7ADFF10F18B
:10239C00160FE7D0421C01350C34D5E79D880000A0
:1023AC0034800000044B0522C3F89420BFF34F8FF8
:1023BC00BFF36F8F704700BF00ED00E0BFF35F8F7E
:1023CC00024B0022C3F89420704700BF00ED00E0E0
:1023DC0010B5034C01232278FFF7B0FF207010BD1D
:1023EC00090B002008B50B4A00231278FFF7A6FF53
:1023FC0010F1160F07D0084A0021D2F89030C3F321
:10240C000723984200DB08BDC2F89800C2F8A01060
:10241C000130F2E7090B002000ED00E02DE9F0435C
:10242C0057485849D0F890300D68C3F307239D42A4
:10243C0085B000F2A180FFF7C1FF496800229542E8
:10244C0001F10C011AD1504C504F25706846FFF722
:10245C0087FADFF83C81DFF83C9106460025AE4256
:10246C001FD1237846490020D1F89020C2F30722CF
:10247C0093427BDBFFF796FF00204CE0C0F89820DE
:10248C0051F80C3C23F01F03134343F01003C0F826
:10249C009C3051F8043C43F00103C0F8A0300132E9
:1024AC00CDE7009800EB05114FEA051CCB683B40CB
:1024BC00B3F5000F44D00AD8B3F5001F2ED0B3F5F6
:1024CC00800F34D0B3F5801F10D00135C7E7B3F1BE
:1024DC00807F3ED0B3F1007FF7D150F80C30886884
:1024EC004A6804F064F840F4802009E050F80C309D
:1024FC0088684A6804F05BF840F0885040F430205B
:10250C00039001A92078CDE90123FFF7EDFE002807
:10251C0028DA6FF0150005B0BDE8F08350F80C30E8
:10252C0088684A6804F043F840EA0800E8E750F885
:10253C000C3088684A6804F03AF840EA0900DFE792
:10254C0050F80C3088684A6804F031F840F082701A
:10255C00D6E750F80C3088684A6804F028F840F048
:10256C008870CDE7237801332370AEE7C1F898303B
:10257C00C1F8A000013377E74FF0FF30CBE700BF85
:10258C0000ED00E044810000090B00200000F0FF8A
:10259C000000081100000206F0B587B007460E4691
:1025AC0014460021102268461D4605F07AFB0223D2
:1025BC008DF802302A46054B019321466846CDE939
:1025CC00047602F069FF07B0F0BD00BFDB650000C8
:1025DC0008B5024B1B689847002008BDD4090020A1
:1025EC00034B044A1860937843F0020393707047CE
:1025FC00D40900201000002008B50649064821F037
:10260C000701C1F1005202F5803203F02BFA0020D1
:10261C0008BD00BF871C0020D8090020044A0123F4
:10262C00C2F840354FF080420020C2F87835704730
:10263C0000E0014048B1054B054A1B68B3FBF2F3BF
:10264C005843044B43F0010318477047B000002077
:10265C0040420F00B080000008B50448044A3F23F4
:10266C00C0E9002301F09AF8002008BDE40900201D
:10267C00FFFF0F00084B70B5C31A0D4607499B109E
:10268C00044659430648402203F0B5FF2B46014649
:10269C002046BDE870401847000A0020B76DDBB635
:1026AC00107E000073B50C4C0C4A4023041B0093A5
:1026BC000D460B460A49A41061430646094803F02F
:1026CC00C5FF011E05DA30462B4602B0BDE870404E
:1026DC00184702B070BD00BF000A0020C1660000A0
:1026EC00B76DDBB6107E00000022F8B5012105465F
:1026FC001046FFF729FD104801F078F80446B8B9E8
:10270C0001F094F82F690D49384603F021FD031EA2
:10271C0009DB01263E642D69084905F11C0003F014
:10272C0017FD031E02DA1C462046F8BDEE64FBE7DB
:10273C006FF00404F8E700BF9928000064810000E2
:10274C001FB500220123CDE90223094ACDF800D0A0
:10275C006B46CDF804D003F0A6FF002805DB4FF440
:10276C0080420023684602F02BF805B05DF804FBAC
:10277C00D366000010B5064C23782BB94FF4A57026
:10278C0005F0F4F801232370BDE8104001F006B900
:10279C000A0B002010B5EFF31184202383F3128869
:1027AC00BFF36F8F074A136823F00201DB07116038
:1027BC0002D4012004F05BFD84F31188BFF36F8F0A
:1027CC0010BD00BF500A002030B4104B0C2202FB8D
:1027DC00003301460020D3E90E529863EFF31180C9
:1027EC00202484F31288BFF36F8F1C6C04F0C00498
:1027FC0044F002041C6480F31188BFF36F8F1DB189
:10280C002B46034830BC184730BC7047000A0020E8
:10281C00107E000010B4EFF31182202383F3128892
:10282C00BFF36F8F1748016841F002040460C807BA
:10283C0007D482F31188BFF36F8F012010BC04F012
:10284C000EBD4FF08041D1F80C04D1F80C14C9071F
:10285C00EFD5EFF3118083F31288BFF36F8F0A4922
:10286C000B6C03F0C00343F002030B6480F311887C
:10287C00BFF36F8F82F31188BFF36F8F002010BCF2
:10288C00FFF7A2BF500A0020000A002010B1012857
:10289C0004D07047034B1B6C5B0701D1FFF794BF4F
:1028AC00704700BF000A00202DE9F0413849BFF302
:1028BC005B8F0746012251E8003F41E800200028C9
:1028CC00F9D1BFF35B8F33B9324933484B60CB60DE
:1028DC008A6003F050FC7B1E012B2BD8012F07D1F3
:1028EC004FF08043D3F81C3403F00303012B21D0A9
:1028FC0005F082F80546F8B9284B1B78E3B14FF088
:10290C0080430222C3F808230646DFF894804FF078
:10291C008044D4F81824D4F81834D20315D503F015
:10292C000303012B01D0012F0FD155B386F311886E
:10293C00BFF36F8FBDE8F081EFF31186202383F393
:10294C001288BFF36F8F0125DFE7ADB1304603F07E
:10295C001FFED4F81835002BDBD1D4F80421002A43
:10296C00D7D0C4F80431D4F804310123C4F8183595
:10297C00C8F88031A360CCE70021212005F0D5F800
:10298C00E7E74FF080430222C3F80423D2E700BFED
:10299C00FC090020EC0900201C0A00201A0B002066
:1029AC0000E100E008B5074804F0FCFF38B1064828
:1029BC00FFF716FE0448FEF743F9002008BD6FF040
:1029CC001200FBE7507E0000D92900000A2838B518
:1029DC00074D044604D1AB680D21DB6928469847A6
:1029EC00AB680348DB69E1B29847204638BD00BFAD
:1029FC00507E0000430970B507D10B4B596821B1CB
:102A0C0001250C68094E854001B970BD8A682A40C1
:102A1C0002D04B68304698471CB1236821461C46AF
:102A2C00F2E72346FAE700BF540A0020307E00008C
:102A3C0038B54568A86890B104F06FFE014670B9CE
:102A4C00A86804F04EFE044658B902460649A86828
:102A5C0004F038FE224605210620FFF775FB002006
:102A6C0038BD6FF00400FBE7012A00002DE9F043AC
:102A7C005B4E5C4F00EB810140F2FF15814202D1AD
:102A8C000020BDE8F083046814F4804FC4F3C32C19
:102A9C00C4F3080340F09080240E16F80CC0AB422F
:102AAC0008BF4FF0FF33192C00F28980DFE804F0E7
:102ABC000D13191C1F251C8787878736638787870B
:102ACC00878787878787667B7E81C2F80C355C1C7D
:102ADC005ED10430D2E7C2F814355C1CF9D0002466
:102AEC005FE0C2F80835F2E7C2F81035F5E75C1C78
:102AFC00C2F80835EDD0002404E05C1CC2F80C359B
:102B0C00E7D001245FEA531E5CD14FF001084FF06F
:102B1C00A04E08FA03F9CEF80C950AE0C2F8083575
:102B2C00BCF1000FD9D15C1CD3D00024A0464FF0CF
:102B3C00060CD0F8009009F4004EBEF1000F1CBF3B
:102B4C004FF00008012403F01F0E5B0942D14FEA3D
:102B5C008E0E0EF1A04EC9F34129DEF800373B4032
:102B6C0043EA890343EA0C2343EA080343EA440398
:102B7C00CEF80037ADE7C2F80C35D1E7C2F86035B6
:102B8C00B3F1FF3F0468A4D0C4F30044002CB8D0C8
:102B9C005C091BD101244FF0A04E04FA03F8CEF8C7
:102BAC000885A046C5E7C2F86435E9E7C2F8683580
:102BBC00E6E7C2F86C35E3E76FF0150061E76FF0FC
:102BCC0085005EE70023C3F80C35FFDE0023C3F855
:102BDC000835FAE70EF5E07E002353F82E30F4E7C3
:102BEC000A890000F0F8FCFF2DE9F04100220546AF
:102BFC0001210220FFF7A8FA0220FFF789FA6C687E
:102C0C000121E06803F0EEFF6B681A682369C2F8D3
:102C1C002435637D217D0B43C2F86C352C6920680B
:102C2C00A0B16B6838491E680022083004F0E9FF37
:102C3C002368DD63206835490022683004F0E1FF29
:102C4C002368C3F89C50324BC6F804336F68D7E93D
:102C5C00004313F001033DD0D5F8108004F10C01B2
:102C6C0008F11C0204F5907004F0E3FA061E07DA72
:102C7C00284A2948012103F098FB3046BDE8F08131
:102C8C0098F81C0000F09EFD0823C4F800353B6A40
:102C9C00C4F844350023C4F848350123A360D4F8A4
:102CAC005831002BFBD00023C4F800356B685968F1
:102CBC0011F004040CD1D868214603F093FF6B6823
:102CCC0021461D68D86803F08DFF0823C5F8003530
:102CDC000026D2E70822C4F800253A6AC4F8442535
:102CEC00C4F848350123A360D4F82031002BFBD065
:102CFC000023C4F82031D4F820310123E3604FF4D1
:102D0C008073C4F80433CAE7276D00007D7100009E
:102D1C0014020A00128900004C8000002DE9F843CF
:102D2C0004464568884604F067FE6368A8B92E4AD5
:102D3C00127892B11F684FF020096426606803F086
:102D4C0041FF00283ED1012004F036FA013EF5D1B6
:102D5C000021212004F0E9FEEFE721691F684FF004
:102D6C002009EFF3118689F31288BFF36F8F606827
:102D7C0003F028FF08B30B6853B1D3F8A4203AB181
:102D8C00D3F8B420002A03DAD7F84C25C3F8B420C2
:102D9C006B685B0744BF4FF48003C7F804332B6A9E
:102DAC0083F80080296A0122204603F07CFF86F319
:102DBC001188BFF36F8FBDE8F88386F31188BFF3DA
:102DCC006F8FCEE7EFF311810E4689F31288BFF3B4
:102DDC006F8F606803F0F6FE0028D9D181F311885B
:102DEC00BFF36F8FB4E700BF1A0B00202DE9F04F33
:102DFC009946D0F804A00369DAF800401D6885B044
:102E0C00064602939AF8083088461746002B40F085
:102E1C00A88095F86130002B40F0A68095F86230C0
:102E2C0003F0FF01002B40F09F80B9F1FF3F66D00B
:102E3C00B9F1040F63DDDFF838E14E4A4FF400407E
:102E4C004FF0050C99FBFCFCCCFB00E10023704619
:102E5C00FDF73EF94FF0000BC5E915B0C5E9108739
:102E6C00C5E912BBE965C5F850B0DAF80420520781
:102E7C0056D5EFF311822021039281F31288BFF310
:102E8C006F8F0221304603F0FDFE039A82F3118806
:102E9C00BFF36F8FDAF80420530741D595F86060C3
:102EAC00002E3DD0BE4228BF3E46DAF81C103246FA
:102EBC00404604F0CEFEBF1B2ED195F86020921B2D
:102ECC00D2B285F86020DAF81C00811904F0CFFE2C
:102EDC00029BBFF35B8F03F1180B5BE8003F43F0E1
:102EEC0004034BE80032002AF7D1BFF35B8F44F3A5
:102EFC000734002C06DA002005B0BDE8F08F002066
:102F0C000146A7E763091C4904F01F040122403362
:102F1C00A24041F82320EEE7B9F1FF3F12D1B044B3
:102F2C000023C4F83485C4F83875C4F81031D4F8CB
:102F3C001021C4F84C31D4F84C31012385F86130A0
:102F4C002360D8E7C4F808B1D4F80831D5E91623C2
:102F5C0000200021CDE9000105F1080002F038FA4B
:102F6C00DDE76FF08500C7E76FF00F00C4E700BF27
:102F7C003F420F0040420F0000E100E0F7B506466B
:102F8C0005691C46EFF31187202383F31288BFF3E6
:102F9C006F8F2B68D3F8A4C0BCF1000F07D087F358
:102FAC001188BFF36F8F6FF00F0003B0F0BDC3F843
:102FBC00A4202B68C3F8A01001F06043B3F1005FAC
:102FCC002B6814D1C3F8A8102B68C3F8AC20294681
:102FDC00304603F081FE87F31188BFF36F8F73685F
:102FEC001B7D012B01D1631C06D10020DDE7C3F84A
:102FFC00B0C003F0C8FDEAE70B480C4A2D6824EA80
:10300C00E4744FF4004600210023C4FB0601FDF7D5
:10301C005FF8683502460B4600200021CDE900011F
:10302C00284602F0D5F9E0E73F420F0040420F007E
:10303C0070B5012383400E4ABFF35B8FDC4352E82B
:10304C00001F01EA040542E80056002EF7D1BFF339
:10305C005B8F4FF4803282400648C0F80823BFF3E0
:10306C005F8FBFF36F8F0B4214BF0120002070BD28
:10307C00680A00200010014070B40E49D1E90034F8
:10308C00D01AC31844F10004C2F30E06C1E900348F
:10309C00A6F58053B3F5C04F09D2074B1B685A0CE9
:1030AC00DB039C19054B42F10005C3E9004570BCDC
:1030BC0002F08EB8400700206C0A00204807002060
:1030CC0011B3BFF35B8F0123104A834052E800CF4A
:1030DC004CEA030C42E800C10029F7D1BFF35B8F27
:1030EC000B4A4FF480338340C2F80433094BBFF3CF
:1030FC005B8F1B68BFF35B8FC340DB0742BF064B84
:10310C004FF40032C3F80021704700BF680A00205A
:10311C0000100140600A002000E100E030B5144BC3
:10312C001868410CC003BFF35F8F124BD3F8043502
:10313C0047F6FF7293420AD10F4AD2E90045844206
:10314C0075EB010209D3C01841F1000130BD18180C
:10315C0041F10001B3F5006FF8D2074BD3E900231E
:10316C00904271EB0303F1D210F50040ECE700BF85
:10317C006C0A002000100140480700202DE9F04F98
:10318C0085B016461F469DF840A00446FFF750FF39
:10319C000190FFF7C3FFB04271EB07035CD2301A0A
:1031AC0044F2010367EB0101984271F1000156D220
:1031BC003D4B03EB0413D3E902239F4208BF964215
:1031CC0065D03A494FF4803804F1500508FA04F8F8
:1031DC00AD002046C1F84883ADB203F0CCFFC6F376
:1031EC000E0B05F1804504F5A87305F58835584696
:1031FC004FF003090293C0F30E03002B029A08BF91
:10320C000120C0F30E0341F82230C1F84483D1F8F9
:10321C0004356FF0020CACEB030C6044C0F30E00F1
:10322C0043F6FD72904232D9286868B1D1F8043562
:10323C000393A3EB0B00C0F30E00B0F5804F26D91F
:10324C00204603F098FF039BBAF1000F07D109EB5E
:10325C00030009F10109CEE7BAF1000F09D06FF0B4
:10326C00150520460199FFF72BFF284605B0BDE850
:10327C00F08F01230E4ABFF35B8FA34052E8000F7F
:10328C00184342E800010029F8D1BFF35B8F0649CF
:10329C000E98230101EB0412C8500F9B5360C2E936
:1032AC0002670025DDE700BF200700200010014069
:1032BC00600A002070B5294C294BC4F80833C4F8B7
:1032CC004833284B284A00254FF0FF304FF0FF3190
:1032DC004FF48036C4F80855C3E90201C4F80463FE
:1032EC00C3E906014FF4003386B00121C4F804335E
:1032FC001120C2F880312A46FEF726FF1120FEF776
:10330C0007FF1A4B01200322A06020601A60184BA3
:10331C00009343F6FF720023CDE90155FFF72EFF12
:10332C000220FFF7C1FA134A13491368134823F01C
:10333C000103136047F6FF73C4F844630DF11702E1
:10334C00C4F8403503F075FF002804DB9DF8170026
:10335C0000F038FA284606B070BD00BF00100140DE
:10336C0001000F002007002000E100E0680A0020A7
:10337C0085300000640A0020081001404011014013
:10338C002DE9F743374CD4F80433D90319D540232E
:10339C000022990810290CD1D4F84031002B41D0CF
:1033AC000023C4F84031D4F840314FF48032442328
:1033BC00EFE70433502BECD11AB12B4A13680133CD
:1033CC001360D4F804339A0329D5BFF35B8F274BD2
:1033DC0053E8002F22F0020143E800100028F7D137
:1033EC00BFF35B8F930702D4D4F84431BBB10025F3
:1033FC00C4F84451D4F84431FFF790FEEFF3118236
:10340C00202383F31288BFF36F8F194BD3E9066720
:10341C00B042B94108D282F31188BFF36F8F03B069
:10342C00BDE8F0834423B4E74FF0FF384FF0FF3989
:10343C00C3E90689D3E904101D614FF40033C4F8C5
:10344C004833C4F84451D4F8443182F31188BFF3A3
:10345C006F8F0029E3D0009032463B46012088470D
:10346C00DDE700BF001001406C0A0020600A00205C
:10347C002007002030B5431C85B043F6FF7223D0E3
:10348C009042A8BF104601280446B8BF0124FFF79C
:10349C0045FE0F4BD3E90013401AB0F5804F43F6AD
:1034AC00FF7513D22218AA4228BF2A4652184FF091
:1034BC00000008490091CDE9010043F1000301200F
:1034CC00FFF75CFE05B030BD1446E0E72A46EDE799
:1034DC00400700208530000008B5FFF71FFE024BA7
:1034EC001B68C01A08BD00BF400700204FF0704396
:1034FC0093F8E02F062A09D1D3F8E83FC3F303135E
:10350C00033B042B02D8024AD05C70470020704762
:10351C005E890000024AD2F80034002BFBD07047C1
:10352C0000E0014010B503F036FE40B14FF080537F
:10353C008E4AD3F82433C3F30423C2F84035FFF783
:10354C00D5FF10B18A4B8B4A5A6703F024FE48B161
:10355C004FF080534FF08042D3F84432C3F34233E0
:10356C00C2F83C35FFF7C2FF30B1834AD2F8FC30C9
:10357C0023F08073C2F8FC3003F00DFE40B14FF025
:10358C0080430022C3F80C21C3F81021C3F838255E
:10359C00FFF7ACFF20B14FF080430322C3F8A02506
:1035AC00FFF7A4FF60B1754B0522C3F8102601226A
:1035BC00C3F888260022C3F818263F22C3F8142625
:1035CC004FF08053D3F83021511C09BF4FF070439A
:1035DC00D3F8343193F8E02FD3F8E83F08BFC3F3A6
:1035EC000313062A4DD1033B042B03D8644AD35C46
:1035FC00002B46D04FF08052624BD2F80414C3F823
:10360C002015D2F80814C3F82415D2F80C14C3F8FA
:10361C002815D2F81014C3F82C15D2F81414C3F8CA
:10362C003015D2F81814C3F83415D2F81C14C3F89A
:10363C004015D2F82014C3F84415D2F82414C3F85A
:10364C004815D2F82814C3F84C15D2F82C14C3F82A
:10365C005015D2F83014C3F85415D2F83414C3F8FA
:10366C006015D2F83814C3F86415D2F83C14C3F8BA
:10367C006815D2F84014C3F86C15D2F84424C3F87A
:10368C00702503F088FD48B14FF080534FF0804215
:10369C00D3F8583203F04F03C2F8E43E03F07BFD3D
:1036AC0048B14FF08043D3F80024D20744BF6FF0E9
:1036BC000102C3F800244FF08053D3F83021062ABE
:1036CC0026D1D3F83431033B042B02D82E4AD35CD9
:1036DC0063B12E4AD2F83C3743F48063C2F83C37CE
:1036EC004FF08053D3F83031062B11D14FF080536B
:1036FC00D3F83431033B042B02D8254AD35C3BB1BD
:10370C004FF01023D3F808224FF08043C3F858250C
:10371C004FF01023D3F80022002A03DBD3F8043235
:10372C00002B22DA1B4901234FF01020C1F804357D
:10373C001524FFF7EFFEC0F80042FFF7EBFEC0F8D0
:10374C000442FFF7E7FE0023C1F80435FFF7E2FE61
:10375C00BFF34F8F0849104BCA6802F4E062134361
:10376C00CB60BFF34F8F00BFFDE710BD00300140B1
:10377C0000C007400DF0ADBA00ED00E00050004075
:10378C005989000000C0004054890000001000401E
:10379C004F89000000E001400400FA05014B18605D
:1037AC00704700BF700A002010B5054B186814460E
:1037BC0003F004FD0028A4BF2070002010BD00BF42
:1037CC00700A0020024A01238340C2F80435704776
:1037DC0000F00140014B00201B681847740A0020C0
:1037EC00014B1B68184700BF740A002010B50C4C25
:1037FC00237993B9012323710A4B2060002818BF49
:10380C00184600F069F850B923680748002BBDE84A
:10381C00104008BF184600F0AFB86FF0770010BD2D
:10382C00740A0020E1370000ED37000008B5064BA4
:10383C001B683BB10020FEF779FC18B9BDE80840C5
:10384C00FEF766BC08BD00BF740A00204FF0805321
:10385C00D3F83021511C09BF4FF07043D3F83431E9
:10386C0093F8E02FD3F8E83F08BFC3F30313062AFD
:10387C0005D1033B042B04D8034AD05C70470020CD
:10388C0070470120704700BF6389000038B54FF0C6
:10389C0080440123C4F8083363600023C4F800316A
:1038AC00D4F8003142F21075D4F80C24D4F80C344E
:1038BC00D20307D5DB0705D5012003F07DFC013DC4
:1038CC00F2D138BDFFF7C2FF0028FAD0014B00221D
:1038DC005A71F6E77C0A002038B5084C25794DB9A9
:1038EC00012320602371FFF7B1FF08B9002038BD18
:1038FC006571FBE76FF07700F9E700BF7C0A0020E9
:10390C004FF080430022C3F80021D3F8002109496D
:10391C0001221A60096811B1C3F804237047D3F867
:10392C000021002AFBD00022C3F80021D3F800317B
:10393C00704700BF7C0A002010B54FF08043D3F8CD
:10394C000423D20715D5D3F8002192B10022C3F875
:10395C0000210124D3F80021C3F80843FFF776FFB8
:10396C00044B10B15A7922B95C71BDE810401B6848
:10397C00184710BD7C0A0020074A137943B901216E
:10398C00106011714FF080421846C2F8183570471C
:10399C006FF07700704700BF840A002010B54FF01D
:1039AC0080432C4CD3F81814D3F8182411F4803F0E
:1039BC0037D002F00303012B03D00BB103F068FCEA
:1039CC0000234FF08042C2F818350023C2F80431AE
:1039DC00D2F804314FF08053D3F83021511C09BF79
:1039EC004FF07043D3F8343193F8E02FD3F8E83F1D
:1039FC0008BFC3F30313062A08D1033B042B02D8D8
:103A0C00154AD35C13B18A2003F0D6FB4FF08043E8
:103A1C0001229A60226872B9D3F80421002AFBD0E3
:103A2C0011E0D3F81424D207CAD5D3F81C2490077C
:103A3C00C4D422681AB10222C3F8042310BDD3F8EF
:103A4C000421002AFBD00022C3F80421D3F804314E
:103A5C00F4E700BF840A002068890000F8B54FF035
:103A6C008043194FD3F80443012504F01A040026AF
:103A7C0004B9F8BDB4FA84F0C0F11F00830003F55B
:103A8C0080739BB203F1804305FA00F2196824EAB3
:103A9C0002040029ECD01E601B684FF08043012803
:103AAC00C3F808230CD1D3F81824D3F818249207A0
:103ABC0006D10222C3F81805C3F804239860D7E78F
:103ACC003B68C0B29847D3E7840A00204FF080537C
:103ADC00D3F83021511C09BF4FF07043D3F8343167
:103AEC0093F8E02FD3F8E83F08BFC3F30313062A7B
:103AFC0005D1033B042B04D8034AD05C704700204B
:103B0C0070470120704700BF6D89000073B5CEB2BD
:103B1C0000EB46060446B38ADB070D4625D503F0B9
:103B2C00B2FCB38A9A0608D55A0B236803EB8203BE
:103B3C000022C3F81025C3F810252046294600247E
:103B4C0003F040FCB48201A8019503F0BCFB019B7F
:103B5C0000EB8300064BD0F80027134043F0020320
:103B6C00C0F80037204602B070BD6FF01500FAE7C0
:103B7C00F0F8FCFF014803F03FBB00BFB40000208D
:103B8C0010B504480C4603F019FB0028A4BF2070A4
:103B9C00002010BDB400002080F08003042B04D85A
:103BAC00054B034413F8800C704707289ABF034B4E
:103BBC00185C0020704700BF778900007C890000EA
:103BCC0030B50B4B012493F83050002208232042CF
:103BDC0003D0254208D00132D2B2013B4FEA440453
:103BEC00F5D10A70184630BD6FF01500FBE700BF29
:103BFC008C0A0020054B93F82E00431E012B03D991
:103C0C00043818BF01207047002070478C0A002030
:103C1C0010B5164A16490020C2F8000591F82F403D
:103C2C00D2F8043381F82E400C6823F033030CB126
:103C3C0043F02303C2F81C01D2F81C41C2F818014E
:103C4C00D2F81841C2F80801D2F8082191F83320B3
:103C5C00D00791F8342048BF43F08003D207034AC1
:103C6C0048BF43F04003C2F8003310BD0070004061
:103C7C008C0A002070B50D4A002392F830100125F3
:103C8C001E4618B90BB182F8301070BD90FAA0F333
:103C9C00B3FA83F305FA03F40C3302EB430320EA83
:103CAC000400DE8021EA04010123EAE78C0A0020EB
:103CBC0073B50023044601AA0E464FF4807101939C
:103CCC0003F035FE4FF48A71204603F030FE4FF4BA
:103CDC0082710546204603F02AFE20B11EB115B1B3
:103CEC00144BD3F8343601AA4FF48471204603F0F8
:103CFC001EFE4FF48671204603F019FE4FF48871B6
:103D0C00204603F014FE0C4B234083B14FF48E7508
:103D1C00294601AA204603F00AFE291F083589B25C
:103D2C002046ADB203F003FEB5F5AE7FF0D101989D
:103D3C0002B070BD00700040C0FF3F002DE9F04F95
:103D4C009A464FF0805393B0D3F830411C9D661CBB
:103D5C0009BF4FF07043D3F8343193F8E04FD3F8E8
:103D6C00E83F08BFC3F30313062C42D1033B042BDB
:103D7C0003D8444CE35C002B3BD00DF1080C0AAF8C
:103D8C00414C3E46E046002304EB031E0133DEF8B3
:103D9C00189548F8049B082BDEF81CE546F804EB54
:103DAC00F2D1D4F8F065D4F8403601934FF0010EFF
:103DBC000023D4F84496D4F84886C4F8FC3FC4F8E1
:103DCC00FCEF314C5CF804BB04EB031E0133CEF862
:103DDC0018B557F804BBCEF81CB5082BF2D1019BD3
:103DEC00C4F84036F6B2C4F84496C4F84886C4F811
:103DFC00F065264B002483F8334083F834409C60F4
:103E0C001C611D6083F831009C831F4BC3F8F015B7
:103E1C00C3F8F4254DB32322C3F800231B4D1A4ECF
:103E2C000021012707FA01F303404FEA01121FD0CA
:103E3C0002F1804303F5E043EC7F95F81EC0C3F814
:103E4C0010C5C3F81445534632440131D2F8184515
:103E5C0024F0807444EA03630829C2F8183505F18C
:103E6C000205DFD113B0BDE8F08FC3F80053D5E7DE
:103E7C0002F1804404F5E044C4F81035C4F814355C
:103E8C00E2E700BF72890000007000408C0A00203D
:103E9C00F8B50446067A4779417AC079FFF77CFE7B
:103EAC0010B96FF01500F8BD214A01F10C0502EBB9
:103EBC004503012F987139D13046FFF76DFE00286C
:103ECC00EFD002EB4505E871E378A0781B03000204
:103EDC0000F4E06003F480530343207800F0030007
:103EEC0003432079000400F4E020034360780001D0
:103EFC0000F030000343A079000600F0807003430B
:103F0C006079000500F480100343080100F1804043
:103F1C0000F5E040C0F81835012303FA01F192F8DE
:103F2C0030300B4382F830300020BCE70020C8E76B
:103F3C008C0A002070B51F4D95F82E40002C36D100
:103F4C000126FF2085F82E60FFF794FE1A4B1B49C3
:103F5C00C3F80041D3F80021C3F80441D3F804217D
:103F6C00C3F81041D3F81021C3F81441D3F814311D
:103F7C001C239A0806FA02F212F0330F1FBF03F14A
:103F8C00804202F5E242146012681A1F920806FA87
:103F9C0002F212F0330F1CBF5C505A5808335C2BE2
:103FAC00E7D10720FEF7B4F80020286070BD6FF051
:103FBC007700FBE78C0A002000700040FC7000408A
:103FCC002DE9F0410646FFF715FE0D460446C8B92B
:103FDC00FF20FFF74FFEDFF838800A27E3B29D423F
:103FEC0001D800200CE007FB036098F83030427ACF
:103FFC001341DB0709D4FFF74BFF01340028EDD048
:10400C00BDE8F0816FF00F00FAE76FF01500F7E7ED
:10401C008C0A00202DE9FF4105460F4616469846AE
:10402C00FFF7E8FDF8B90DF10F012846FFF7C8FDC1
:10403C000446A0B90D4BC3F8F805331E18BF012375
:10404C003246CDF8008039462846FFF777FE084BFC
:10405C009DF80F2083F83220022283F82E20204670
:10406C0004B0BDE8F0816FF00F04F8E70070004079
:10407C008C0A002030B51D4A136904466BBB00F056
:10408C006043B3F1005F2BD192F83250B1FBF5F3E2
:10409C0005FB131038BB0BB2002B24DD92F82E302D
:1040AC00052B06D8032B0BD8022B0ED06FF0760005
:1040BC0030BD062BFAD10E4BC3F82C46C3F8301684
:1040CC0093683BB1C2E90441F2E78D420BD1C2E9DE
:1040DC000245EDE7C2E90241EAE76FF07700E7E756
:1040EC006FF00C00E4E76FF00600E1E78C0A0020AB
:1040FC00007000402DE9F341514CA368002B00F0F7
:10410C009B8094F82E20022A06D0042A31D06FF01E
:10411C00760002B0BDE8F0814A4D0126C5F8006575
:10412C002168E26849B1032184F82E10C5F82C36B9
:10413C00C5F830262E600020EBE7C5F82C36C5F804
:10414C0030262E6003F00AFC08346E6021460220F3
:10415C00FFF7AEFD0028F9D03A4B0022C3F8082136
:10416C00D3F80811C3F80C21D3F80C11C3F80025AF
:10417C00E1E7344D4FF00108C5F80085276857B1C9
:10418C00052284F82E20E268C5F82C36C5F83026B6
:10419C00C5F80080CFE7A18B94F83220019203EB95
:1041AC0041030093C5F82C36C5F83026C5F80080BD
:1041BC0003F0D4FB94F8363063BB224D01236B60C3
:1041CC0069460220FFF774FD0028F9D00023C5F8DA
:1041DC000831D5F80821C5F80C31D5F80C21A18B84
:1041EC0094F832200A44E16892B28A42A28321BF39
:1041FC00154AA383D2E90201236124BFC2E900015D
:10420C001846104B4FF0000238BF6FF00F00C3F888
:10421C0000257EE7D5F8F465F6B208FA06F6013EFD
:10422C00BE42CAD9C5F8048000210420FFF740FD26
:10423C000028F9D00137F3E76FF00B0069E700BFF6
:10424C008C0A002000700040940A00207FB56D4954
:10425C006C4E3320FFF72CFD10F0100F05460BD0E1
:10426C00694B1022C3F80823B218C3F82C2602227B
:10427C00C3F8302601221A60644CA90694F82E303B
:10428C000ED5072B604A05D0D2F834369BB2E360CA
:10429C0000232361D2F80433DA0601D5FFF7B8FC0A
:1042AC00AB071AD594F82E20A16802910023E1687F
:1042BC008DF80430062AADF80C102BD0072A4AD002
:1042CC00032A0AD1504AC2F80035C2F8003502233D
:1042DC0084F82E30236801A89847ED0762D54FF07B
:1042EC008053D3F83031581C04BF4FF0704393F80F
:1042FC00E03F062B04D1444BD3F80433D90651D4F8
:10430C0094F82E30033B042B4CD8DFE803F05C4BC5
:10431C002B43600094F8353023B1236913B13A4B29
:10432C0001221A60236801A89847394B93E80300CF
:10433C0086E8030000232361A368002BCDD1324A09
:10434C00C2F80035C2F80035042384F82E3005235A
:10435C008DF80430BEE7FFF75BFC02238DF80430C8
:10436C006368B8E704238DF8043001A823689847E4
:10437C00254BD3F8F825D20444BF01225A60226998
:10438C00062384F82E302AB11F4B6169C3F82C2602
:10439C00C3F8301623692BB903238DF8043001A818
:1043AC002368984794F82E30072B0AD0164B1948DF
:1043BC00D3F8043300211840FFF77AFC0126850955
:1043CC004DB904B070BD104B01225A60EAE70E4B98
:1043DC0001229A60E6E795FAA5F3B3FA83F306FA9D
:1043EC0003F225EA02055A08DB4303F001038DF8BA
:1043FC0009308DF8046023688DF8082001A89847CF
:10440C00DEE700BF940A0020007000408C0A0020F8
:10441C009C0A0020C0FF3F0010B50446FCF712FFB9
:10442C000348044A012101F0C0FF204603F0C5FAFD
:10443C003C800000848900002DE9F843044600AF5D
:10444C000D46EFF31188202383F31288BFF36F8F8F
:10445C000428294A98BF294B9668117C94BF53F8BD
:10446C002030274BE9468AB06A462648C2E9073114
:10447C0040F201339384244BC2E9050442F8103F07
:10448C00224800234FF43151FCF7ACFFCD4645B127
:10449C00EB69C3F3080323B11D4A1C48012101F049
:1044AC0084FF2EB1304603F0ADFA08B1037803B99E
:1044BC001848E9468AB06A46174BD061C2E90536FE
:1044CC0040F201331384154B42F8103F00230F4880
:1044DC004FF41151FCF786FF2946CD462046FFF7D5
:1044EC009BFF88F31188BFF36F8F3046FDF7B6FD45
:1044FC00BD46BDE8F88300BFC40A0020008200005E
:10450C0093890000A9890000050000013C8000008F
:10451C00D1890000A1890000F2890000040000018B
:10452C0038B50A4B53F82040013053F82050A542BF
:10453C0000D838BD606830B1037FDB0701D403F0CD
:10454C0019FA0834F3E723689847FAE71482000055
:10455C0070B52A4B2A4C2B4D012286B003201A70C1
:10456C00FFF7DEFFFDF702FA0420FFF7D9FF26461E
:10457C00AE4204F1300410D300F02CFB204C224E40
:10458C00AC4226D300F03AFBFBF758FF1F4A137BD3
:10459C0023F00103137306B070BD54F80C3C059363
:1045AC0054F8103C049354F8143C039354F8183CFE
:1045BC00029354F81C3C019354F8203C009354E9AA
:1045CC000A2354E90C0100F031F954F8303C5E65D3
:1045DC00CDE7D4E90A23B3F1FF3F08BFB2F1FF3FA7
:1045EC0005D052EA0301206803D100F0C3FB30343C
:1045FC00C6E73146183000F05BFDF8E71A0B0020D7
:10460C00A87F0000A87F0000037B000000080020AA
:10461C0070B5174E174D184986B0B02303FB0066D2
:10462C00164B059301220F23CDE903320023CDE96C
:10463C000133142303FB005504464FF4C07000FBF8
:10464C0004110F4B00954FF4A072304600F0EEF8B9
:10465C00737B0C4AEE6023F0040373734FF4046312
:10466C0004FB033313442C746B6006B070BD00BFA5
:10467C0050070020C40A0020C0160020548A0000F5
:10468C00D7790000800E0020BFB50020FFF748FF4F
:10469C00294B83F30888294C294F636943F4007331
:1046AC0063610025E02384F82230E5772576657672
:1046BC00A57684F82050636A43F4E023636284F89F
:1046CC002350FDF741FCFDF7CDFD4FF0FF33A36206
:1046DC00E362FDF7A3FEFDF7E9FDFCF70FFD1948BA
:1046EC00194C00F045F90120FFF71AFF0220FFF7E3
:1046FC0017FF00F0B7FA154B15495C61154B059384
:10470C000123CDE903534FF480623B46CDE90155BB
:10471C000095204600F08AF8627B064622F00402DF
:10472C002046627303F0AAF92846FFF771FF3A4658
:10473C0031462046FDF776FDC016002000ED00E066
:10474C005D450000B008002000080020C40A0020CD
:10475C0040180020598A000070B5EFF31186202311
:10476C0083F31288BFF36F8F0468A0421BD0D4B1BF
:10477C00D4E9003213605A60637B002523F00203F6
:10478C006373C4E90055A56004F1180003F00BFA3B
:10479C002046C4F8AC5003F071F931460748BDE827
:1047AC00704000F0F1B9D0E902329A4218BF0133DF
:1047BC00836086F31188BFF36F8F70BD1B0B0020D5
:1047CC0013B5EFF31181202484F31288BFF36F8F9C
:1047DC00846844B1013C846081F31188BFF36F8F0E
:1047EC00002002B010BD52EA030406D181F31188F7
:1047FC00BFF36F8F6FF00F00F3E7CDE90023024694
:10480C00014800F09FF9ECE71B0B002010B50446A3
:10481C0008B9054B9C681F2204F1740003F049FA97
:10482C00002084F8930010BDC40A00202DE9F04F3D
:10483C00073285B022F0070204461E467F3200F193
:10484C005803C0E9163322F03F02129B2373002059
:10485C000D46119BDDF838A0139FA06004213F2A60
:10486C00C4E906006173A373E07305F14009A2F17A
:10487C00400B05D880F31188BFF36F8F084602DF19
:10488C0005EB020841462046FDF706F90730109B60
:10489C0020F00700C4E9259BC4F89C0002930F9BF1
:1048AC00A8EB000BCDE900A35A4633462946204617
:1048BC00FDF784FC0F9BA3664FF00008109BC4F817
:1048CC005480C4E9186AE366EFF31182202181F366
:1048DC001288BFF36F8F0F4D296A21672C6282F308
:1048EC001188BFF36F8F8FB11F22394604F174000A
:1048FC0003F0DFF984F89380AB680BB1D3F8A030E8
:10490C00C4F8A030584605B0BDE8F08F84F8747038
:10491C00F2E700BFC40A0020F0B587B0002505956A
:10492C00109D04950F9D03950E9D0295DDE9127661
:10493C000D9D01950C9D00950446FFF777FFB6F190
:10494C00FF3F08BFB7F1FF3F05D056EA070305D17B
:10495C00204600F00FFA204607B0F0BD3A46334629
:10496C0004F11800014900F0A3FBF4E7037B0000FD
:10497C0040F2011383810023C0E92533C0F8A03035
:10498C00014B9860704700BFC40A00200A4A936824
:10499C006FF00A01C3F8AC100849C3F8A8004B68C3
:1049AC0043F080534B60002383F31188BFF36F8F68
:1049BC009368D3F8AC007047C40A002000ED00E007
:1049CC0070B590F90D20437B002A36DBD90634D123
:1049DC001B4C63F07F032246437352F8183FE16986
:1049EC00934207D1C0E900210860E06111E09942CF
:1049FC00F8D01B68002BF5D090F90E5093F90E608F
:104A0C00B542F4D0AE42F2DD5968C0E9003108601D
:104A1C005860A569954200D005B9E568A3685A7B32
:104A2C00D20604D1DA897F2A01D9AA6932B1AB4204
:104A3C0002D0284600F098FA656170BD6361FCE70E
:104A4C00C40A002038B590F90D20437B002A01469A
:104A5C0004DA03F07F03437302F0D6FF0D4D2A46B0
:104A6C00AB6852F8184F944200D004B9EC688B42F2
:104A7C0007D05A7BD20604D1DA897F2A01D9A269E0
:104A8C002AB1A34202D0204600F06EFA23466B6195
:104A9C0038BD00BFC40A0020B3F1FF3F08BFB2F11C
:104AAC00FF3F03D00249183000F002BB704700BF33
:104ABC00037B000070B590F90D20437B002A014662
:104ACC0004DA03F07F03437302F09EFF4B7B1C4C14
:104ADC0063F07F0322464B7352F8183FE069934210
:104AEC0007D1C1E900200160E16111E09842F8D0E2
:104AFC001B68002BF5D091F90E5093F90E60B5425E
:104B0C00F4D0AE42F2DD5868C1E900300160596062
:104B1C00A569A368954200D005B9E5688B4207D01A
:104B2C005A7BD20604D1DA897F2A01D9AA692AB123
:104B3C00AB4202D0284600F017FA2B46636170BDD9
:104B4C00C40A0020F8B50E4B0C4611460D4A986865
:104B5C001060DDE90667EFF31182202282F31288E0
:104B6C00BFF36F8F9D68284602F060FF28463246DF
:104B7C003B46FFF791FF2046BDE8F840FFF706BF24
:104B8C00C40A0020E80A002049B9EFF3058030B9C7
:104B9C00054B5A699B689A4201D0FFF7F7BE81F327
:104BAC001188BFF36F8F7047C40A0020034648B9C1
:104BBC00EFF3058232B9064A51699268914201D0ED
:104BCC00FFF7E4BE83F31188BFF36F8F704700BF0C
:104BDC00C40A0020EFF31181202383F31288BFF362
:104BEC006F8F054B9A68D37B013BD37381F311888C
:104BFC00BFF36F8F704700BFC40A002070B5EFF38E
:104C0C001186202383F31288BFF36F8F144DAB688A
:104C1C00DA7B0132DA732A4652F8184F944200D0EC
:104C2C0004B9EC685A7BD20604D1DA897F2A01D9FF
:104C3C00A2692AB1A34202D0204600F095F923467E
:104C4C006B6186F31188BFF36F8FEFF31180202314
:104C5C0083F31288BFF36F8FBDE87040FFF7A6BFD8
:104C6C00C40A0020024B03F11802C3E90622704764
:104C7C00C40A002070B5EFF31186202383F3128849
:104C8C00BFF36F8F1B4CA168E0690B68814214BFA6
:104C9C001A46002249680B605960A368E1692AB979
:104CAC00154AC3E900210B60E3610CE093F90E0097
:104CBC0092F90E50A84218D0854216DD5168C3E90E
:104CCC0000210B605360A5690B4B9D4200D005B9C8
:104CDC00E568A3689D4202D0284600F045F965615D
:104CEC003046BDE87040FFF751BE8A42D8D01268FA
:104CFC00D5E700BFC40A0020DC0A0020F8B550EA52
:104D0C00010306460C4603D1FFF7B4FF0020F8BDA3
:104D1C00EFF31187202383F31288BFF36F8F124DAB
:104D2C00124BA8681860FFF78DFEA868104923463F
:104D3C003246183000F0BCF9AA68537B43F00403E8
:104D4C00537304463846FFF721FEAB68D3E90A23B8
:104D5C00B3F1004F08BF002AD8D102F04CFF201A43
:104D6C0020EAE070D3E700BFC40A0020E80A002064
:104D7C00037B000038B50446EFF31185202383F341
:104D8C001288BFF36F8F437B5B070FD5183002F08F
:104D9C000AFF637B23F0040320466373FFF710FEC6
:104DAC0029460548BDE83840FFF7EEBE85F311886B
:104DBC00BFF36F8F38BD00BF1B0B0020014B9868F1
:104DCC00704700BFC40A00202DE9F8430446077B56
:104DDC00EFF31185202383F31288BFF36F8F437B8E
:104DEC00190705D585F31188BFF36F8FBDE8F883DC
:104DFC00D90943F0080260D14273A36813B120466D
:104E0C0002F00AFE04F1180002F0CDFEA66D04F1CA
:104E1C005808B04511D04FF0000976B1304602F079
:104E2C00FBFD06F1180002F0BEFEC6F8AC90304651
:104E3C00FFF7C6FDA66DB045EFD1DFF8C480D8F8FA
:104E4C0008309C4241D1EFF30589B9F1000918BF34
:104E5C004FF00109D8F818602A4A964200D00EB9D2
:104E6C00D8F80C60B34202D0304600F07DF82046F2
:104E7C00C8F8146001F075FB204600F0CDF8B9F1CC
:104E8C00000F02D02048FFF773FDD8F808309C4281
:104E9C0031D1EFF3058373BB227BD20718D428469C
:104EAC00FFF774FDFB07A1D5002383F31188BFF333
:104EBC006F8F0423184602DF98E703F07F0343F05B
:104ECC000803437302F0A0FD97E74FF00009C1E718
:104EDC0085F31188BFF36F8F83F31188BFF36F8F46
:104EEC000423184602DFEFF31180202383F312888A
:104EFC00BFF36F8FD4E785F31188BFF36F8FD1E7C2
:104F0C00C40A0020DC0A0020B0080020044BC01AA0
:104F1C00044BC0105843044B01221A54704700BF75
:104F2C0060090020ABAAAAAA1B0B0020C3897F2B07
:104F3C0012D80A4B1B6863B1094B90F90E201B6801
:104F4C009A4209DB437BDB0606D1064BC31A18BF1A
:104F5C00012303F0010070470023FAE7B80000209A
:104F6C00EC0A00205007002070B50E4B0E4C1E7C36
:104F7C0006EB460304EBC3040546204602F013FE81
:104F8C000A4B002228469A55FFF7D0FF48B1084B30
:104F9C0008491A68013A2046D317BDE8704000F062
:104FAC0087B870BDC40A0020600900201B0B0020CC
:104FBC00B8000020194F000038B5EFF311852023FD
:104FCC0083F31288BFF36F8F104B114A9C681068E3
:104FDC00A04206D1FFF7C8FF85F31188BFF36F8F8E
:104FEC0038BD00211B7C11600A4AD35C002BF3D026
:104FFC002046FFF79BFF0028EED0637BDB0602D137
:10500C002046FFF757FD2046E4E700BFC40A002006
:10501C00E80A00201B0B0020EFF31181202383F3FF
:10502C001288BFF36F8F0A4A136A834207D11B6F32
:10503C00136281F31188BFF36F8F70471346002BF7
:10504C00F7D01A6F8242F9D1026F1A67F1E700BFED
:10505C00C40A0020024B1868984208BF0020704711
:10506C00BC000020034B1B680BB9FEF735BA0020BF
:10507C00704700BFF00A002030B570B10B4B5B6875
:10508C0098420AD0036843B1D3E90421D0E904451E
:10509C00121941EB0501C3E90421D0E90032136078
:1050AC005A600023C0E9003330BD00BFBC000020B3
:1050BC00B3F1FF3F08BFB2F1FF3F2DE9F84F0446B3
:1050CC00994615461F467AD08160EFF3118820234C
:1050DC0083F31288BFF36F8FB9F1000FDFF8E4A0F0
:1050EC0020DBFFF7BFFFDAE90027013549F10009A2
:1050FC002D1849EBE073C4E90453AD18064643EB95
:10510C0007074FF00109FFF7A5FFDFF8BCE0DEF859
:10511C0004A00346EBB9C4E900EACAF80040CEF893
:10512C00044028E0DAE900126FF001035B1A4FF03B
:10513C00FF3161EB02025B1B62EB0902012B72F186
:10514C000001BCBF01230022C0E904324FF000096A
:10515C00D9E7D3E9041CD4E904208A4270EB0C0B88
:10516C0024DA891A5A686CEB0000C3E90410C4E90C
:10517C00003214605C60FFF76DFF84420ED1134B5C
:10518C001B685BB9B9F1000F02D1FFF76BFF064644
:10519C00304602F0F1FC0021FEF76CF988F311881F
:1051AC00BFF36F8F28463946BDE8F88F521A60EB73
:1051BC000C009A45C4E90420ADD01B68AAE7002571
:1051CC002F46EFE778090020BC000020F00A0020F1
:1051DC002DE9F047EFF31185202383F31288BFF3F9
:1051EC006F8FDFF8A490DFF8A480C9F80000FFF7F8
:1051FC0031FF00260027D9F80030D8E900ECD91788
:10520C0050B1D0E90442A34271EB020A1CDAE41A51
:10521C0062EB0102C0E9044213EB0E034FF00004F1
:10522C004CEB01012046C8E90031C9F8004002F0FE
:10523C00A3FC2146FEF71EF985F31188BFF36F8F8F
:10524C00BDE8F047FFF7B8BE14EB0E024CEBE4736D
:10525C00C0E90467C8E90023FFF70EFF85F3118846
:10526C00BFF36F8F83689847EFF31185202383F387
:10527C001288BFF36F8FD9F800301B1BC9F80030B0
:10528C00FFF7E8FEB7E700BFF00A0020780900201E
:10529C0010B5EFF31184202383F31288BFF36F8FC3
:1052AC00FFF7E0FE054A0346D2E90001181841EB6E
:1052BC00E37184F31188BFF36F8F10BD7809002060
:1052CC00F8B50546EFF31187202383F31288BFF35B
:1052DC006F8F036823B187F31188BFF36F8FF8BD0D
:1052EC00D0E90A46611C46F10002022972F1000263
:1052FC0036D3012C76F10002BCBF01241E46013CC2
:10530C0046F1FF3602F07BFC013041F1000100193F
:10531C0046EB0101012871F1000130DB02F06FFC5A
:10532C00013041F100016FF00203001946EB01015D
:10533C0083426FF000438B4126DB02F060FC0130AE
:10534C0041F100016FF00102001946EB0103121A42
:10535C004FF0FF3161EB03031C492846FFF7A8FE11
:10536C002B6B01332B632B6A93B93C462B4653F8BA
:10537C00185F9D4200D0D5B984F31188ADE76FF06A
:10538C0001024FF0FF33E7E700224FF00043E3E761
:10539C0087F31188BFF36F8F2B6A28469847EFF37A
:1053AC001184202383F31288BFF36F8FDEE7284626
:1053BC0002F073FB0023C5F8AC3084F31188BFF303
:1053CC006F8F2846BDE8F84002F058BBCD52000064
:1053DC002DE9F04105461C4690461F46EFF3118619
:1053EC00202383F31288BFF36F8FB4F1FF3F08BF04
:1053FC00B2F1FF3F05D186F31188BFF36F8FBDE883
:10540C00F081002C09DB012A74F10003BCBF0122DE
:10541C00002412F1FF3844F1FF37284602F0C3FB99
:10542C00DDE906010023C5E90A012B6342463B4630
:10543C0028460249FFF73CFEDDE700BFCD520000D5
:10544C000CB430B589B005460C461C22002101A8CD
:10545C0002F027FC02238DF806300E4B02930595C3
:10546C0023462CB1B4F1004F28BF4FF00043013B51
:10547C001D440DAA0C99069501A8009200F00CF899
:10548C0014B1059B00221A7009B0BDE8304002B07F
:10549C00704700BFA57D00002DE9F04F8DB043682B
:1054AC000293837815469A07804640F10D810024BB
:1054BC000E78002E00F00A81252E0BD04B1C039386
:1054CC000134029B4146304698470028C0F2F680D2
:1054DC000399EDE74E788B1C252E0393F0D0002713
:1054EC00B946BB46BBF11F0F38D8A6F12003102BD1
:1054FC000AD8DFE803F02A0909300909092109094A
:10550C000928092D09091F00A6F13003092B33D9ED
:10551C002A2E37D11BF0400F55F8043B40F0828007
:10552C00002BA7BF4BF0200B9946C3F100094BF0A1
:10553C00280B01E04BF0010B039B13F8016B039359
:10554C00002ECFD130E04BF0020B4BF0040BF3E705
:10555C004BF0080BF0E74BF0100BEDE7BBF17F0FB6
:10556C0019D8A6F13003092BD2D81BF0400F03D069
:10557C000A2101FB0737DFE70A2101FB09394BF050
:10558C00200BD9E72E2E06D11BF0400F40F09E8049
:10559C004BF0400BD0E76C2E31D02BD8682E36D088
:1055AC006A2E3CD04C2E3AD0002F46F02003B8BFC8
:1055BC002BF04002A3F16501BCBF1FFA82FB002750
:1055CC00022901D9612B2FD1073525F00705DFF80A
:1055DC00ACA2083507271BF0080F66D00AEB070BA7
:1055EC0056465E4563D1A4EB0A0A06EB0A02A9EB08
:1055FC0007096FE1742E9FD07A2E9DD0D4E71BF053
:10560C00800F18BF4BF4007B4BF0800B94E71BF41E
:10561C00807F18BF4BF4007B4BF4807B8CE74BF402
:10562C00207B89E71F4687E7A6F16301122900F268
:10563C00F080DFE811F013004F00EE00EE00EE00FA
:10564C00EE004F00EE00EE00EE00EE00EE00FE006D
:10565C00E900EE00EE001B00EE00AF0055F8043B35
:10566C008DF8183001270DF1180AB4E755F804AB82
:10567C00834BBAF1000F08BF9A461BF0400F14BFC2
:10568C0039464FF0FF31504602F023FB0746A2E7A4
:10569C00029B41462020984700280FDB013EB74271
:1056AC00F6D34C44A41BB14698E74E46F7E716F8E0
:1056BC00010B029B41469847002892DA98F8023079
:1056CC0043F0040388F802304FF0FF3420460DB04D
:1056DC00BDE8F08F1BF0800F34D01BF4007F2CD072
:1056EC00073525F00705AA4669685AF8080B2BF010
:1056FC0010050029ADB237DA404261EB410145F4A7
:10570C0080650DF1180B0A235A4602F0EEFAA0EB55
:10571C000B0301936B0662D5019B25F001019F429F
:10572C0089B240F3A180002E00F0998015F0100290
:10573C0040F09C80BB460D4623E0AA465AF8040B69
:10574C00C117D4E7AA461BF4807F5AF8041B01D179
:10575C000846F5E71BF4007F15BF48B208B241F3C9
:10576C00C01141F3C031C2E750EA0103C9D11BF0AB
:10577C00400FC6D0002FC4D12BF0110295B2BB46FE
:10578C00019740F2064115EA01021CBF0BF1010B17
:10579C0000222CE02BF010021FFA82FB0A231BF0D4
:1057AC00800C49D01BF400711DBF073525F007058F
:1057BC00AA46AA461ABF5AF8080B69685AF8040B8D
:1057CC0050EA010545D12BF016051BF0400FADB288
:1057DC0042D0002F40D12BF0170295B2019715F053
:1057EC00100248D0019B002E42D103F1010B290776
:1057FC005AD4EB0706D5D9456FDD0199A9EB0B03FC
:10580C005F18CB465B4649E04BF0100B1023782613
:10581C00C5E7782B04D1C6F1780343F01003BEE73B
:10582C00029B4146252098470028FFF647AF0234DB
:10583C0047E608230026B2E7AA461BF480715AF803
:10584C00040BBDD01BF400711ABFC0B2614680B20C
:10585C00B6E72BF0060295B20DF1180B54E725F0C4
:10586C001105ADB2BB468CE70D46B8E73B460D467D
:10587C0003F1020BBBE7DDF804B082E7688A000095
:10588C00618A0000CDE904324146029B20209847F2
:10589C000028FFF613AF049B059A01339945F1DC00
:1058AC00A4EB0B01CC189B460AB3029B414630205B
:1058BC0098470028FFF602AF8EB901342744019BAC
:1058CC00391B994224DC1D465DBB019AA9EB0B09DF
:1058DC00224455461446914435E0019F92E7023428
:1058EC0041463046029B98470028E7DAE6E640F24C
:1058FC0006410D42E2D015F0020F14BF2B202020E0
:10590C0015F4806F04F10104414618BF2D20E9E71E
:10591C00029B414630209847002804F10104CEDA5E
:10592C00CCE606AB013D4146585D029B98470028EA
:10593C00CADAC3E6029B414620209847002804F1AE
:10594C000104FFF6BBAEA9EB0403002BF2DCBFE5B0
:10595C007047836800EBC101B3F5004F2CBF51F8C1
:10596C00220031F81200704700EBC1018068B0F5DD
:10597C00004F2CBF41F8223021F81230704708B587
:10598C000122FFF7E6FFD04008BD8368B3F5004F56
:10599C0000EBC10108D34B681AB143F001034B6013
:1059AC00704723F00103FAE74B881AB143F0010367
:1059BC004B80704723F00103FAE753000122FFF7F5
:1059CC00D3BF8368B3F5004F34BF04230823481CAE
:1059DC000833A0EBD300B0FA80F0C0F11F00704781
:1059EC002DE9F0410D4686680446FFF7C8FFB6F571
:1059FC00004F014601D3012832D02046FFF7E1FFCA
:105A0C0004EB80010E6996B9E368012282401343CE
:105A1C00E36002220D612B4629462046FFF7A4FFC6
:105A2C00032229462046BDE8F041FFF79DBF022224
:105A3C0031462046FFF78DFF294603460746204690
:105A4C00FFF792FF0322334629462046FFF78CFFCF
:105A5C0039462B462046FFF787FF02223146E1E705
:105A6C00BDE8F081B2F5802F2CBF08230423D21A95
:105A7C002DE9F0418C18CD1D25F0070524F0070405
:105A8C00641B0026E40805602146AC60EE602846E5
:105A9C00FFF797FF421D9200013002F107074FEA12
:105AAC00D707A2F110023146B8BF324605F11000FB
:105ABC0002F0F7F83A4631462846FFF77EFF3346A8
:105ACC00324631462846FFF74FFFA4EB070828461D
