:10000000F8A10020F52300002B8A0000E123000066
:10001000E1230000E1230000E1230000E1230000D0
:10002000000000000000000000000000612500004A
:10003000E123000000000000F9240000E12300009B
:10004000FD260000FD260000FD260000FD26000024
:10005000FD260000FD260000FD260000FD26000014
:10006000FD260000FD260000FD260000FD26000004
:10007000FD260000FD260000FD260000FD260000F4
:10047C0053B94AB9002908BF00281CBF4FF0FF31FF
:10048C004FF0FF3000F00CB8ADF1080C6DE904CE64
:10049C0000F010F8DDF804E0DDE9022304B0704749
:1004AC00704700BF034613F8012B002AFBD1181A22
:1004BC00013870472DE9F04786468C460846089E61
:1004CC00154674461946002B40F0C1808542B2FA9D
:1004DC0082F245D94AB1C2F1200300FA02FC9540E0
:1004EC0094402EFA03F343EA0C0C4FEA154EA8B2D3
:1004FC00230CBCFBFEF80EFB18CC08FB00F943EAFE
:10050C000C43994528D9EB1808F1FF3704D29945CB
:10051C0002D9A8F102072B44A3EB0903A4B2B3FB45
:10052C00FEFC0EFB1C330CFB00F044EA0344A0421F
:10053C0014D92C190CF1FF3304D2A04202D9ACF11E
:10054C0002032C44241A43EA07401EB1D440002372
:10055C0034607360BDE8F0874746DDE76346F1E73A
:10056C0092BB431B01214FEA154EAFB2200CB3FBDB
:10057C00FEFC0EFB1C330CFB07F840EA03439845CA
:10058C0061D9EB180CF1FF3004D2984502D9ACF1CB
:10059C0002002B44A3EB0803A4B2B3FBFEFC0EFB3E
:1005AC001C330CFB07F744EA0344A7424DD92C1922
:1005BC000CF1FF3304D2A74202D9ACF102032C4454
:1005CC00E41B43EA0040C0E7C2F12003954094408D
:1005DC0020FA03F12EFA03F34FEA154E9040AFB216
:1005EC000343B1FBFEFC0EFB1C10190C0CFB07F8B3
:1005FC0041EA0041884522D969180CF1FF3004D238
:10060C00884502D9ACF102002944A1EB08019BB248
:10061C00B1FBFEFC0EFB1C110CFB07F743EA01437C
:10062C009F420ED9EB180CF1FF3104D29F4202D934
:10063C00ACF102012B44DB1B41EA004193E760461D
:10064C00E3E76146F7E76046A4E76346B8E7834211
:10065C0006D916B9002108467CE7C6E900E0F9E79F
:10066C00B3FA83F78FB9834201D3724508D8BEEB36
:10067C00020460EB030301209C461EB9002169E7CC
:10068C003846FAE7C6E9004CF8E7C7F1200CBB4046
:10069C000EFA07F522FA0CF42EFA0CF1BA401C43B0
:1006AC0020FA0CF3B8404FEA144901431FFA84FEB8
:1006BC00B3FBF9F809FB18300B0C08FB0EFA43EAF4
:1006CC0000439A4540D9E31808F1FF3004D29A450B
:1006DC0002D9A8F102002344A3EB0A0389B2B3FBAD
:1006EC00F9F809FB183308FB0EFE41EA03418E456D
:1006FC002CD9611808F1FF3304D28E4502D9A8F128
:10070C000203214443EA0040A1EB0E01A0FB029836
:10071C004145CE46434602D306D14D4504D201385D
:10072C00B9EB020E68EB0403002EA7D0B5EB0E025A
:10073C0061EB030101FA0CFC22FA07F3F9404CEAD5
:10074C000303C6E9003199E74046C5E74346D9E7BC
:10075C0008B50C4B4FF4FA511868421C1A604FF450
:10076C007A52094B00F0010002FB003004F07EFCD1
:10077C00024628B1BDE808400449054807F057BBBC
:10078C0008BD00BF580C0020901400205CB3000082
:10079C00CCAD00001FB50378032B20D0042B18D050
:1007AC00ABB90289416852000192012200910E49B5
:1007BC00CDF808D051F8040B03928268146802AA91
:1007CC00A047021E03DA0949094807F030FB04B0C0
:1007DC0010BD084804B0BDE8104009F012B904B0CF
:1007EC00BDE81040FFF7B4BFE00000207EB300006E
:1007FC00CCAD0000D000002070B54B4C86B020680A
:10080C0009F04FF940B949480121494A08F03EF82E
:10081C006FF0120006B070BDE06818B109F041F934
:10082C000028F0D0434B03AC93E8070084E80700A2
:10083C0000222146404809F0D0F83F4E054640B30F
:10084C0002463E49394807F0F2FA00220121D52030
:10085C0001F0C2FE012004F045FB024630B33849DA
:10086C00324807F0E4FA306802AA364900F5A07065
:10087C0008F07AFC0246002846D033492B4807F092
:10088C00D6FA4FF0FF304FF0FF3105F0B3FD0020EA
:10089C00C0E74FF4FA71304604F07CFF01230246A6
:1008AC0029463046009509F0CAF8CEE707232748B9
:1008BC000121037004F05CFB024608B12449CFE728
:1008CC0003902246A08002210120224B04F07AFBE7
:1008DC00024608B12049C3E74FF4FA511F4804F00F
:1008EC00C5FB024608B11E49BAE74FF4FA511D4840
:1008FC0004F0BCFB02460028F5D104F0F9FB0246DB
:10090C000028B0D01849ABE722461849184808F01F
:10091C002BFC02460028B0D1029803F051FB03983F
:10092C0003F04EFBADE700BFE0000020CCAD0000B3
:10093C009DB3000090AE0000D0000020B2B30000C8
:10094C00CEB3000004500D505FB40000AC03002087
:10095C00EAB30000A107000012B4000090140020BC
:10096C005CB30000105300203BB4000000500D504D
:10097C0004510D502DE9F04F91B0009302F0040397
:10098C000293C2F3C2030133840705460E46DDF819
:10099C0068800392059340F0BB81041D30B1072998
:1009AC0009D86FF01B0011B0BDE8F08F01F00706FD
:1009BC003444C6F10806009B4FF000094FF0040ABE
:1009CC00591E4FF0FF334F460193CB465346CDF89B
:1009DC0010900DB1009A22600598002800F3E88071
:1009EC009848009A824203D397488242C0F0E08034
:1009FC00039AA4EB050E92074FEA9E0000F10381C7
:100A0C000F2F00F2B180002D00F0058107F140029C
:100A1C000DEB020C019A0CF8200C0CF8102C04981D
:100A2C0001300490E7E07A285DD84B280ED847288F
:100A3C0059D829282DD8252852D054D820287AD0F6
:100A4C002338D0F1000B4BEB000B74E04C382E2804
:100A5C0049D8DFE800F070484848484848484848BA
:100A6C0048484B484848484848484859484B4B59CF
:100A7C005959704B6D487048184B184848827F4B39
:100A8C0048484B487F0000204FF0000B4FF0040A01
:100A9C0038E001222A38C0B202FA00F010EA0E0F38
:100AAC0049D110F0625C2FD110EA020B43D06046A2
:100ABC00013C5444B4FBFAF40AFB04F4002D61D05D
:100ACC00A3EB050CA444B4453FF66BAF002868D1EA
:100ADC00042B47D158F8043B2360042304342AE048
:100AEC00019A013A01924FF0000B24E011F8010C2D
:100AFC006C2834D1002011F8023C83466C2BC5D1F4
:100B0C004FF0080A5346D3E708F1070828F0070806
:100B1C00073424F00704F8E802AB35B106982044FA
:100B2C00B0423FF63EAFC4E900AB4FF0000B0834C7
:100B3C004FF0080A534611F8010F002878D0BBF18A
:100B4C00000F7FF470AF2528F5D14FF0010B019BFE
:100B5C00013301934FF0040AECE7584694E7002068
:100B6C008346A5E7082B02D06FF015001BE708F1B0
:100B7C00070828F00708F8E80223C4E90023082333
:100B8C000834D8E768B9042B02D108F10408A4E7AB
:100B9C00082BE9D108F1070828F0070808F1080824
:100BAC00EDE7059A013A059258F8042B009210E7EC
:100BBC00039A900720D54FF0010CA4EB050E4FEAD9
:100BCC009E00BEF5007FCFD20F2FCDD8F5B107F127
:100BDC0040020DEB020E019AC0B20EF8200C0EF87A
:100BEC00102CBCF1000F3FF41AAF60F07F000EF830
:100BFC00200C09F101090137C5F108024FF6DA7E24
:100C0C000434069297E74FF0000CDAE7BCF1000FC2
:100C1C0001D00136EFE7029802360028EBD100989C
:100C2C00CDE90631FFF73EFCDDE906310644E2E78B
:100C3C00631BB3F5806F97D245B9A6F10804E01891
:100C4C00B1E600BFA8A30000DCBE0000029A9B081E
:100C5C0028602B709DF81030C2B1EB7085F80290B3
:100C6C00B9F1000F05D0002208A8C5F1010C97427C
:100C7C000ED14FF0000AC5F101030DF120080193CC
:100C8C000DF1300B574512D1601B8CE66B70E5E70C
:100C9C0010F8013B190608D50CEB040EB64503F011
:100CAC007F033FF67EAE04F8013B0132DFE7B9F17A
:100CBC00000F03D098F90020002A17DB029BD3B158
:100CCC001AF80B2004F8012B0022019B1819104470
:100CDC00B0423FF666AE98F80000009904F8010B9C
:100CEC002046039209F0C1FA039A14440AF1010A4E
:100CFC0008F10108C6E798F8002055F82230009357
:100D0C00029B009845F82230FFF7CCFB421CDCE735
:100D1C006FF00D0047E600BF2DE9F04F97B000AF24
:100D2C00D7F880B03B62CBF3C0030446894690F8F9
:100D3C0002A0FA62BB6141B9457800780AEB8000E9
:100D4C0020444D4517D8A0EB0409E378FB61BAF1B8
:100D5C00000F02D01BF0010F16D1FB6953BBFB6ACD
:100D6C001BB1494620463A6A98474D4628465C379F
:100D7C00BD46BDE8F08F461C3046FFF793FB0130B3
:100D8C00304409F10109DCE7626823787A62FA6A77
:100D9C009900796104EB8301002A40F001810E4631
:100DAC004FF000084D4601EB0A094E454CD101EBC2
:100DBC000A0610E01BF0020FD1D023789A007A615A
:100DCC00626804EB83017A62FA6A002A77D14D4695
:100DDC00904601EB0A061BF0050F0CBF0223012302
:100DEC00FB62FB6906EB430A0BF00203BB62564540
:100DFC00BCD016F8021B16F8013C54F82390994B02
:100E0C00994502D3984B994536D3BB69002B40D0FA
:100E1C00786A07F023F900283BD0E9468AB06A4685
:100E2C00924B53617B6AC2E906314FF40073138411
:100E3C008F4B42F8103F00234FF412518D4800F0B5
:100E4C0019FD023DCD46D2E716F8013BF96254F884
:100E5C002300FFF727FBD7F88430F96A01304BB138
:100E6C00D7F8883098453EBFD7F8843023F818005F
:100E7C0008F10108054498E7BB6923B1786A07F0CB
:100E8C00EDF80028C9D11BF0010F05D1FB6AED1A52
:100E9C00ADE7BB6A002BAAD04846FFF703FBD7F897
:100EAC00843053B1D7F8883098453FBFD7F88420A9
:100EBC00431C22F8183008F10108054497E7BAF1F1
:100ECC00000F73D01BF0040673D0D046002607F138
:100EDC00480052463B61B96209F0C7F9B96A3B69EF
:100EEC0001EB0A02BA62FA69F9695200FA60BA6A4D
:100EFC0002EB41023A610BF00202BA603A69B96A3C
:100F0C008A4258D162781BF0020F18BF00217A6216
:100F1C0008BF4FEA5801B2181BF0010FD2B240F0D3
:100F2C009F801BF0040F14BF40460020BB61627011
:100F3C00A070E17020463A6A7969FB6A9847051EF1
:100F4C00FFF614AFBB69414623707B6A3A6A637043
:100F5C00FB6984F802A0E37007F14800FB6A98472C
:100F6C00B0F10008C0F2BA807B69A9EB0A01C91A7A
:100F7C00FB683A6AC91AD7E90A0398470028C0F2F5
:100F8C00AF804FF0000BA84408EB000507F1380ABE
:100F9C00B34571D300213A6A0846FB6A9847E5E6E7
:100FAC0056464FF0000807F1380092E75646D046F7
:100FBC0096E7B04694E7BA6A12F8021B12F8015C85
:100FCC00BA6254F82500274A904202D3264A90422E
:100FDC001ED3BA6932B1786A7B6007F03FF87B6840
:100FEC0000288BD1BA6802BB08F1280207F1300C3B
:100FFC0008F10100944407F1580208F1020852FA72
:10100C0080F00CF8101C5FFA88F800F8105C75E79B
:10101C00BA693AB1786A7B6007F020F87B680028DF
:10102C007FF46CAF1BF0010F09D006F1280207F119
:10103C003000711C161806F8205CCEB25EE71BF06F
:10104C00040F3FF45BAF08F1280207F1300008F100
:10105C00010102EB000808F8105C5FFA81F84DE71B
:10106C00002063E7A8A30000DCBE000092B40000DF
:10107C0004000001DCAD00001BF80A3054F823908A
:10108C0087F83730D7F884302BB3D7F888309B45A6
:10109C0021D2D7F8843033F81B8001213A6AFB6ADD
:1010AC0007F13700984700281ADB0544B8F1000F08
:1010BC0006D14846FFF7F6F900F101081FFA88F847
:1010CC00414648463A6AFB6A9847002808DB0544C3
:1010DC000BF1010B5CE74FF00008DEE7454645E6F7
:1010EC00054643E6014B1860704700BFF80000202E
:1010FC0080B505460E461746984605F0CDF90346D1
:10110C0009F042F90446DFF81890424649F80030DD
:10111C0039463046A84754F8090001F0D1F900BF10
:10112C00080000002DE9F047058B0446280790467F
:10113C0011D4022905F0070540F0CC80204607F0B9
:10114C002DFA78B10138218B042811D8DFE800F092
:10115C00C2106D85950001290CBF45F0100545F0B6
:10116C002005258388F31188BFF36F8FBDE8F087C6
:10117C0001F0070AAA4500F0A5800027B9463E46B3
:10118C00A368002B00F0BC8041F00801218388F398
:10119C001188BFF36F8FA168002900F0BA800D6829
:1011AC00002900F0B680334652462046D1F8048020
:1011BC00C047002D76D02B6829461D46F0E701F07C
:1011CC0007035A1F012A1BD8002221F00701062B06
:1011DC00276889B2C4E9002209D13B4603E0628B3F
:1011EC00013262831B68002BF9D141F002012046C9
:1011FC00218307F0D3F900287AD041F0200176E062
:10120C00042B0AD121F0070189B22046218307F073
:10121C00C5F910B141F020012183218B01F0070A9F
:10122C00AA454FD00027B946AAE7236921F0070148
:10123C0041F00601062DD3F8009021832DD1B9F190
:10124C00000F3FD041F00801218388F31188BFF3D0
:10125C006F8F20463949C84729E021F007012369DF
:10126C0041F0040189B2042DD3F804902183E6D017
:10127C0000274FF0040A3E4682E721F0070123695C
:10128C0041F0050189B2052DD3F808902183D6D001
:10129C0000274FF0050A3E4672E700274FF0060A7A
:1012AC003E466DE72B4687E7B9F1000FD1D1EFF33E
:1012BC001188202383F31288BFF36F8F238B23F0C5
:1012CC0008032383258BEA062ED525F010032383F0
:1012DC0005F007056669218B002EBFF670AF002361
:1012EC002768C4E9003321F0070141F00101218393
:1012FC00218B4FF0000901F0070AAA457FF440AF9B
:10130C00002F9CD041F00801218388F31188BFF392
:10131C006F8F002FC8D03D68394633465246204661
:10132C0007F068F92F46F4E7AB067FF51BAF25F005
:10133C002003238305F0070500E700BF2D8600007E
:10134C002DE9F047044607464FF00109DFF85080BD
:10135C0014B93846BDE8F08794FAA4F5B5FA85F5CA
:10136C0009FA05F32E0108EB05156FEA030A24EAC6
:10137C0003042B7B002BEBD058F806301B694BB9C0
:10138C004644736804222846196807EA0A0707F0DE
:10139C000DFADDE7284698470028D9D1F0E700BFC1
:1013AC0034AE000030B5002289B00F490F4808F068
:1013BC00BDFC002200230024CDE906230E230C4D96
:1013CC00CDE903344FF440722846CDE90144094B72
:1013DC000949009404F06EFD0849284604F0F2FC1B
:1013EC00204609B030BD00BF0D1400005809002084
:1013FC009004002025170000B891002046B500008D
:10140C00014804F04BBC00BF680400202DE9F047F4
:10141C00804621480F4607F0ADF90646002833D028
:10142C0000252846BDE8F087237B83B12368DB6861
:10143C000BB120469847636883F8069023681B69B4
:10144C00D3B9636804222046196807F0AFF9013656
:10145C0010345445E8D3B8F1000FE2D0002DDFD0A2
:10146C002846FFF76DFF0546002FF7D0002140F20C
:10147C00391004F0BFFFF1E7204698470028E0D070
:10148C0009FA06F31D43E2E705464FF00109034C48
:10149C00DFF80CA0DDE700BF6C0C002034AE0000C0
:1014AC0044AE0000014B53F820007047ECAE000036
:1014BC0008B5034608462BB1044A136000F070FCD3
:1014CC00002008BD6FF01500FBE700BFFC000020FA
:1014DC0010B5044C237813B9034804F0DFFB012347
:1014EC00237010BD909100206804002010B50446B4
:1014FC00094807F03FF93CB1084BD3E8EF1F01391D
:10150C00C3E8E21F002AF8D1054808F01BFCBDE82F
:10151C001040044804F0C2BB640C0020680C00208E
:10152C00580900206804002000200146034BD3E832
:10153C00EF0FC3E8E21F002AF9D17047640C0020BA
:10154C0070B5FFF7F1FF0546074C084EB44200D3C7
:10155C0070BD63685B792BB123685B6813B1294656
:10156C00204698471034F1E734AE000044AE00003A
:10157C0010B5044C0449204606F0A9FE034B1C6030
:10158C0010BD00BFC8030020D8AE00005C0C0020CA
:10159C0000230D4A10B513700C4A0D4913600D4A07
:1015AC000D481360FFF784FFFFF7E2FF0B4B0C496C
:1015BC0018468B4200D310BD1A1A5C681211013206
:1015CC0022711033F5E700BF91910020640C0020CC
:1015DC0040420F00680C00207D87000034AE0000F4
:1015EC0044AE0000014600220023014806F090BEE4
:1015FC00C8030020014806F029BF00BFC803002023
:10160C00024B0146186806F075BF00BF5C0C002049
:10161C00014806F0AABF00BFC803002070B5274BD5
:10162C001878002849D0FFF7E5FF0546002841D17E
:10163C00234B244C1B68002B19DD08F075FB4FF471
:10164C007A75A0FB050647F61222002305FB016103
:10165C00FEF70EFFD4E90032C01A40F2E93361EB19
:10166C000201984271F1000101D3FFF769FFD4E93F
:10167C00003213F57A7342F10002C4E90032BDE87E
:10168C007040FFF7C5BF63685B7923B123682946B7
:10169C0020461B6898471034B442F4D32846FFF711
:1016AC00AFFF094BD3E8EF1F0139C3E8E21F002A53
:1016BC00BED0F7E7054C064EEEE770BD90910020CA
:1016CC00640C002050090020680C002034AE00008F
:1016DC0044AE000070B50D4D297861B90120FFF7BB
:1016EC0095FE0B4C0B4EB44206D3FFF797FF002828
:1016FC00FBD101232B7070BD63685B791BB1236830
:10170C0020469B6898471034EDE700BF919100206C
:10171C0034AE000044AE000000212DE9F04708462D
:10172C00FFF774FE044658B340F21B684FF00009F3
:10173C0008F02AFE1B4B1C4A1B58136033B11B4B81
:10174C001B68092B02DD1A4804F0A8FA0025194F72
:10175C00DFF85CA044B12046FFF7F2FD044618B94F
:10176C004FF0FF384FF0FF39FFF758FF064628B906
:10177C00B5B942464B46504604F0C4FA3546E9E743
:10178C004FF0FF384FF0FF39D2E72B689B691BB144
:10179C0000222846114698471035BD42F5D3E8E79C
:1017AC00054DFAE708000000600C0020680C0020D2
:1017BC006804002044AE000034AE000013B5184895
:1017CC0006F0D8FF174B1B7873B1EFF3118420236D
:1017DC0083F31288BFF36F8FFFF720FF84F3118818
:1017EC00BFF36F8F02B010BD0F4B1B68002BF9D0ED
:1017FC0050B9002200230D48CDE9002347F61222F0
:10180C00002305F055F9EDE70928EBD1074808F05E
:10181C0099FA074802B0BDE8104004F03FBA00BF87
:10182C00680C002091910020600C002058090020C9
:10183C006804002010B5064B04461B6898472146E7
:10184C00A060044806F0E3FDBDE81040FFF7B6BF0A
:10185C00FC000020C8030020044A054B9B1AB1EB86
:10186C00D30F34BF52F8310000207047CCAD0000CC
:10187C0034AE00002DE9F04F8FB0C1F34A2804AF0D
:10188C000D469146B8607B600C0DB8F1000F63D02B
:10189C0000264FF0040B4FF00A0A07F11403C7F8A7
:1018AC000C80C7E907667E620193CDF808B0CDF8CD
:1018BC0000A007F11C0332464846F968FFF72CFAE2
:1018CC00B0F5006F03461CD36C468AB0D9F80410EF
:1018DC0004AB26481A46C3E9050140F2FF71D961F1
:1018EC004FF400711984224B42F8103F4FF41251FF
:1018FC0033462048FFF7BEFFA5462C37BD46BDE852
:10190C00F08FC0F30A0804F11700184420F0070008
:10191C0080083B60FFF766FE68F35325044690B1E0
:10192C003B6800F11001C7E9083607F11403F961AF
:10193C00CDE900A3CDF808B048460F4AF96807F185
:10194C001C03FFF7E9F968F353252A4620467B6808
:10195C00B96806F04BFFD0E704F1170020F0070040
:10196C008008FFF73FFE0446EDE700BF5BB50000C3
:10197C0004000001F4AD0000CB8700002DE9F04F0E
:10198C0087B00446DDE9105ADDE912799346984692
:10199C000391BFB13B46524610210020CDF8009078
:1019AC00CDF81490FEF7E6FFB0F5006F06460AD3AB
:1019BC0040F2FF730221174A174807B0BDE8F04FF9
:1019CC0006F06DBF3E4605F11700304420F00700CD
:1019DC008008FFF707FE04F007040BF0070BE40088
:1019EC0044EA8B1444EA462444EA0554054640B1C3
:1019FC003FB13B4652463146CDF800901030FEF7D1
:101A0C00B9FF434622462846039907B0BDE8F04F7C
:101A1C0006F0ECBE9AB50000F4AD0000406820B1B1
:101A2C00034BC01A40F3CF0070474FF0FF307047A4
:101A3C00CCAD00000EB403B503AB53F8042B014638
:101A4C000448019301F074F802B05DF804EB03B0A4
:101A5C00704700BFF5880000CA0605D48B064CBF42
:101A6C0002490349FFF7E6BF704700BFD3B500003A
:101A7C00D2B500002DE9F04F89B09B46149B9DF820
:101A8C004CA00693159B04460593169B0D46904659
:101A9C00179E0493BAF1000F00F09D8006F480733A
:101AAC00079306F081FE06F00209024600283ED09C
:101ABC0020469149FFF7BEFF0746B9F1000F08D049
:101ACC0016F0440F35D12A4620468C49FFF7B2FF59
:101ADC00074406F0010353B1894B204653F82A20E2
:101AEC00884B8949002A08BF1A46FFF7A3FF06F462
:101AFC008073002B49D006F00803002B63D1B8F19A
:101B0C00000F66D0424620468049FFF793FF0546FA
:101B1C00069B3D44002B6DD1049B002B73D1F30726
:101B2C0000F1E48031462046FFF796FFD8E00746E7
:101B3C00C3E7774B18680028CAD0764B4FF47A79F4
:101B4C001B684FF03C0CB5FBF3F5B5FBF0F14FF413
:101B5C00616300FB115509FB05F5B1FBF3F2B5FB15
:101B6C00F0FE03FB121100FB1E55B1FBFCF309FB4D
:101B7C0005F5B5FBF0F50CFB131120460091CDE9F2
:101B8C0001E56549FFF756FFA2E706F00803EBB144
:101B9C00624B204653F82A206149FFF74BFF05465C
:101BAC00B8F1000F05D0424620465849FFF742FFD6
:101BBC000544BBF1000FABD05A4620465949FFF7FC
:101BCC0039FF0544A4E74FF0000BE1E706F00805E8
:101BDC00E6E745469CE7BBF1010F069B06D1002BBF
:101BEC0064D1049B002B7BD000250CE0002BF8D09B
:101BFC004D485CE04D48069B22464D4906F0FDF9E8
:101C0C00049B002B68D0DFF82C81DFF82C91049F0B
:101C1C003146102F204628BF10274FF0000BFFF73E
:101C2C001BFF5D4545DC059B494620461A78FFF7AE
:101C3C0001FF4FF0010B1BF0070F03D1414620466B
:101C4C00FFF7F8FE5F453BD9059B4946204613F844
:101C5C000B20FFF7EFFE0BF1010BBBF1100FEAD1DC
:101C6C004FF0000B20463549FFF7E4FE5A46059B22
:101C7C0020469A5CA2F120015F2928BF2E22304910
:101C8C00FFF7D8FE0BF1010BBBF1100F1DD01BF0B1
:101C9C00070F03D141462046FFF7CCFE5F455A465D
:101CAC00E5D841462046FFF7C5FEEBE71F485546F1
:101CBC00A1E741462046FFF7BDFE0BF1010BB0E753
:101CCC0020462049FFF7B6FEC5E7059B3B4405932C
:101CDC00049BDB1B04939AD1BAF1000F7FF41FAF66
:101CEC00204609B0BDE8F04F06F0F1BD2046054A8C
:101CFC000549FFF79FFE15E7DAB50000DEB50000D9
:101D0C00FCAE0000D5B50000BABC000003B6000064
:101D1C00740C0020700C0020E7B5000010AF000020
:101D2C0007B600000DB6000023890000F5880000FE
:101D3C003D2B00001AB6000012B600001CB60000C5
:101D4C001EB6000018B6000042F20F7373B58B423A
:101D5C0028BF0B4605680446052168460D4A05F068
:101D6C00DFFD0646636828460B225B680A4906F0CD
:101D7C00A0FD63683246694628465B6806F099FD0B
:101D8C0063681B2228465B68044906F092FD02B08A
:101D9C0070BD00BF91B700003DB6000021B6000039
:101DAC0000210123064A904206D8064A01B90123B4
:101DBC001360054B18607047012140085B00F2E787
:101DCC0040420F00700C0020740C0020F8B50D463A
:101DDC000446064F4618B44201D12846F8BD14F803
:101DEC00011BBB6801485B689847F4E7A0A400009E
:101DFC00014B03600020704758AF000008B5044841
:101E0C0006F053F9BDE80840024806F04EB900BF91
:101E1C0083B60000B8B6000008B50348034A002199
:101E2C00121A06F0F4FD08BD90040020B8910020B1
:101E3C00074808B5074A0849121A06F0EAFDBDE83A
:101E4C0008400648064A0749121A06F0E2BD00BFD0
:101E5C004000002090040020DCBE00004000002068
:101E6C0040000020DCBE00002DE9F04706460C4681
:101E7C0000AF002936D0D1E90012E9468AB06D4690
:101E8C00A3684FF0050AA8461F48C5E90723C5E912
:101E9C00050148F810AF002342464FF421511B486E
:101EAC00FFF7E8FCD4E90312CD466369AD46184848
:101EBC00C5E90723C5E90501C5F810A00023424672
:101ECC004FF421511148FFF7D5FCCD46E3690121B0
:101EDC00104A0E4806F0E3FCA36901210E4A0B4898
:101EEC0006F0DDFC012E07D1EFF305830B4A3146DA
:101EFC000648103B06F0D3FC2146304603F07AFC32
:101F0C00BD46BDE8F08700BFE6B6000014AE000089
:101F1C0015B7000044B7000053B7000081B70000AC
:101F2C0030BFFFF7FDBF00BF2DE9F04105460B4E5A
:101F3C00DFF82C80324606EB0807CC1B20460949FB
:101F4C0008F093F9A01942460021083C08F09AF9D0
:101F5C00C5F8B44007F10800BDE8F08100000000AE
:101F6C000400000088AE0000054B5A699B689A4239
:101F7C001FBF044A536843F080535360704700BF3F
:101F8C00200E002000ED00E070B52A4C06460D46F0
:101F9C0029482A4906F04AFDA36ADB0647D526489C
:101FAC00274906F043FD1120A36A1C0704D52248DB
:101FBC00244906F03BFD12201E4CA36A990712D54A
:101FCC0021491D4806F032FD636BA26A120609D541
:101FDC0001211E4A184806F062FC1EB1A36A23F0C8
:101FEC008003A3621320134CA36ADE0704D51248A6
:101FFC00174906F01BFD1420A36A9C0604D50E4855
:10200C00144906F013FD15200A4B9A6AD10658BFE5
:10201C009A6A9A6A920642BF5A6A22F400525A622B
:10202C009A6A42F0FF029A6200232B7070BD102056
:10203C00BAE700BF00ED00E014AE000094B700005A
:10204C00AAB70000DDB70000F0B7000008B8000028
:10205C001EB800003DB8000010B5244C244925489A
:10206C0006F0E4FCA36A99013ED52248224906F009
:10207C00DDFC1E20A36ADA0104D51E481F4906F0B8
:10208C00D5FC1F20194CA36ADB0204D519481C4946
:10209C0006F0CCFC0220A36A1C0304D51548194990
:1020AC0006F0C4FC2120114CA36A590304D5114835
:1020BC00154906F0BBFC2220A36A9A0304D50D48EF
:1020CC00124906F0B3FC2320084CA36ADB0304D5A9
:1020DC0008480F4906F0AAFC2420A36A6FEA0343C0
:1020EC006FEA1343A36210BD1D20C3E700ED00E0AF
:1020FC006CB8000014AE000084B8000097B8000063
:10210C00B1B80000DBB80000F9B800001EB900003F
:10211C0038B9000070B5294C06460D4628482949A7
:10212C0006F084FCA36AD9043CD52548264906F060
:10213C007DFC1720A36A1A0504D52148234906F013
:10214C0075FC18201D4CA36A9B0512D51C48204910
:10215C0006F06CFCA36BA26A100409D501211D4A80
:10216C00174806F09CFB1EB1A36A23F40043A3623C
:10217C001920124CA36A590504D51148164906F0CA
:10218C0055FC1A20A36ADA050ED50D48134906F042
:10219C004DFC1B20094A936A43F47F43936200234E
:1021AC002B7070BD1620C5E7A36A9B04F2D50448BA
:1021BC000B4906F03BFC1C20ECE700BF00ED00E0F7
:1021CC0014AE000063B9000079B90000DDB700005F
:1021DC008AB90000A3B90000B8B90000D3B9000057
:1021EC003DB800002DE9F0418AB0654B0446D3F8A8
:1021FC000480002600AFC8F3080586F31188BFF3EE
:10220C006F8F02F07F43B3F17F4F07D102F00C03C5
:10221C00082B12D15B495C4806F008FC00263446BA
:10222C000023FB71EB1E092B00F28980DFE803F021
:10223C000A7F827B87878787878510074CBF0C4670
:10224C000126EDE75149504806F0F0FB00234C4DB8
:10225C00FB71EB6A9A0705D54D494B4806F0E6FB36
:10226C00002331E0EB6A002B01DA4A49F5E7EB6A0F
:10227C005B00F5D54849444806F0D8FB6B69A26968
:10228C0043F480736B61BFF34F8FBFF36F8F6B6938
:10229C0032F8022C23F480736B61BFF34F8FBFF3C2
:1022AC006F8F4DF602739A4207D0AB6ADBB26BB3F9
:1022BC000120F91DFFF768FE37E023680121374A3A
:1022CC00314806F0ECFA2368FA79DAB907F1080517
:1022DC0004F1200C2A4620686168083403C2644566
:1022EC001546F7D17A6A002E45D0C2F3080121B900
:1022FC006FEA52226FEA42227A62184607F108010D
:10230C00FFF7B2FD2837BD46BDE8F081AB6A13F488
:10231C007F4F04D00120F91DFFF7FCFE05E0AB6AEE
:10232C00B3F5803F9CD3FFF797FE0346CCE7002024
:10233C00F91DBFE70020F91DEEE719498DE7194A91
:10234C0018F4F87FE8468AB0174B18BF13466A4654
:10235C001649103DC2E905134FF400731384144B56
:10236C00D56142F8103F00234FF411510648FFF796
:10237C0081FAC54674E722F4FF7222F00102BBE732
:10238C0000ED00E019BA000014AE000044BA0000E1
:10239C005BBA00007CBA00008ABA0000A9BA00003F
:1023AC00C5BA000000BA0000EBB90000E9BA0000A1
:1023BC0004000001064B5A6942F010025A615A6936
:1023CC0042F480625A615A6922F008025A617047DD
:1023DC0000ED00E0EFF30880EFF3098101B57246E0
:1023EC00FFF700FF01BD00BF002080F31488BFF38E
:1023FC006F8F002080F30A8880F30B88104880F3DD
:10240C00088800200F49087001F08CFC00200E4950
:10241C000860BFF34F8F00F02DF8202080F3118857
:10242C000A484FF40061401880F30988EFF31480D8
:10243C000221084380F31488BFF36F8F00F0F0F88B
:10244C00F8A10020B691002094ED00E0B894002093
:10245C00002318460649D1F89020C2F30722934274
:10246C0000DB7047C1F89830C1F8A0000133F6E7E3
:10247C0000ED00E010B572B6002484F31388FFF76A
:10248C00E7FF23464FF0FF300C4A03F120010133E4
:10249C00102B42F82100F8D100234FF0FF30074AEF
:1024AC0003F160010133102B42F82100F8D162B620
:1024BC00BFF34F8FBFF36F8F10BD00BF00E100E083
:1024CC00084B9B6883420BD1EFF3058343B1064B5A
:1024DC005A6842F080525A605A6A22F400425A6298
:1024EC0003F0E0BF200E002000ED00E016498A68E2
:1024FC004FF030001044EFF3098C80E8F01F2020DF
:10250C0080F31288BFF36F8F104F4FF000664A694B
:10251C008A603E60D2F8B4000D4C2060D2F8B8004E
:10252C000023C2F8B83080F3118802F1300090E833
:10253C00F01F8CF3098802F1000004B506F07EFA56
:10254C00BDE8044070470000200E002004ED00E0C0
:10255C009C0C00201EF0040F0CBFEFF30880EFF36F
:10256C000980816911F8021C0229FFD001B572465D
:10257C0006F051FA01BD00BF00B2002807DB0123B1
:10258C004109034A00F01F00834042F82130704794
:10259C0000E100E000B200280CDB012206494309EF
:1025AC0000F01F008240203341F82320BFF34F8FEF
:1025BC00BFF36F8F704700BF00E100E0054B42098D
:1025CC0053F82220012300F01F0003FA00F0104002
:1025DC00704700BF00E100E000B2002801F10101EA
:1025EC00ACBF00F16040064B4FEA4111C9B2ABBF22
:1025FC0000F5614000F00F0080F80013195470478B
:10260C0014ED00E0044B054A23F07F039360BFF305
:10261C004F8FBFF36F8F70470000000000ED00E09C
:10262C0008B5FFF7EFFF074AD2F8883023F47003A0
:10263C00C2F88830FFF7F0FBFFF7FAFB00F048F820
:10264C0003F0FCF900ED00E042F8203C009B0B4944
:10265C0042F81C3C019B21F0010142F8183C029B02
:10266C0042F8081C42F8143C4FF0807342F8043CCA
:10267C000023203A0265C0F8B8307047FD10000006
:10268C0000B50E4B15469860D0F8B4200C4B0E4696
:10269C001A60D0F8A43083F30B882C4686F3098893
:1026AC000020044B98472046002100220023024CB6
:1026BC0020470000598A0000FD100000200E002069
:1026CC009C0C00201022014B1A61704700ED00E0B9
:1026DC000023202040F20F1210B5044CE1180133F6
:1026EC00934281F80003F9D110BD00BF00E100E076
:1026FC0008B5EFF30583064A103B02EBC30152F811
:10270C00330049688847BDE80840FFF72DBC00BF7F
:10271C0000A500001FB5094C094A234601210948B0
:10272C0000F012F900230393074B0121E41A01A8CE
:10273C000193029400F012F904B010BD00F00220D5
:10274C000000002058AF00009004002010B50C7A57
:10275C000B6804F01F0223F01F031A43CB686409B3
:10276C0023F01F03054943EA440343F00103C1F876
:10277C009800C1F89C20C1F8A03010BD00ED00E01D
:10278C0010B50A4BD3F89030C3F30723013B9842A2
:10279C0008D901210346064A064806F080F86FF076
:1027AC00150010BDFFF7D2FFFBE700BF00ED00E006
:1027BC0000BB00000CAE00002DE9F04F894614461A
:1027CC0006464FF00008514D85B0C84527DAD6F8BB
:1027DC0004A0BAF1000F44D0BAF11F0F17D91AF0A8
:1027EC001F0F14D1D6F800B01BF01F0F0FD1584695
:1027FC0006F04FF907460AEB0B00013806F049F9D1
:10280C00874210D06FF01507414A3B4601E0434622
:10281C00404A0121404806F042F86FF0150420466A
:10282C0005B0BDE8F08F17F1160FEDD0BC42EBDD13
:10283C00C5F89870D5F89C10C5F89870D5F8A030EC
:10284C0021F01F0143F01F0BD6E900321A449942C4
:10285C0002F1FF3A1DD1D34507D13146F8B206F04B
:10286C0021F908F101080C36AFE73146C5F898702C
:10287C00D5F89C3022F01F0203F01F031343C5F858
:10288C009C30E0B206F00EF910F1160FC5D0441CC6
:10289C00E7E7C5F89870D5F8A020013B23F01F039B
:1028AC0002F01F021343D3453146E0B2C5F8A03005
:1028BC00E8D006F0F7F810F1160FAED0C5F8987006
:1028CC00D5F89C209DF808300BF1FF3B62F3040314
:1028DC008DF80830D5F8A0309DF808205B0863F31C
:1028EC0047128DF80820D6E900321344009323F0E8
:1028FC001F035B44A3EB0A03013023F01F0369465B
:10290C00C0B20393FFF73CFFBEE700BF00ED00E051
:10291C0049BB000026BB00000CAE00000522044B96
:10292C00C3F89420BFF34F8FBFF36F8F704700BF76
:10293C0000ED00E0BFF35F8F0022024BC3F8942040
:10294C00704700BF00ED00E010B5034C2278FFF794
:10295C0033FF207010BD00BF939100202DE9F74F7D
:10296C00294D8A4606464FF00008AB46274FD04506
:10297C001BDAD6F80490B9F1000F3FD03168084645
:10298C00019106F086F80199044609EB0100013823
:10299C0006F07FF884424FF014021D4B08D002FB66
:1029AC0008F36FF015024BF8032003B0BDE8F08F6D
:1029BC0014F1160F2C60F8D01978A142F5DD02FB4A
:1029CC0008B0C7F89840C7F89840D7F89C4000F179
:1029DC000801007B64F304000871D7F8A0000C799F
:1029EC00400860F347140C71D7F89C1021F01F01BC
:1029FC006960D7F8A01021F01F01296108F10108C6
:102A0C0014350C36B3E700BFA00C002000ED00E03D
:102A1C0093910020F0B54149414CD1F89030256894
:102A2C00C3F307239D4287B075D80020FFF782FFC0
:102A3C003C4BC1F8C030854216D13B4C01A82570E7
:102A4C00FFF7D6F900250646384FAE4213D10020C9
:102A5C0023783249D1F89020C2F30722934254DBF9
:102A6C00FFF75CFF00202FE0616801EB0011FFF71E
:102A7C006DFE0130DFE70199280101EB0513DA68DF
:102A8C003A40B2F5001F21D0B2F5800F2BD0B2F531
:102A9C00801F38D15A689B680958013B22F01F00EF
:102AAC0003440120844623F01F0340EA4C10CDE977
:102ABC0002218DF8100002A920780593FFF760FE23
:102ACC0000281DDA6FF0150007B0F0BD5A689B683E
:102ADC000958013B22F01F0003444FF0020C012067
:102AEC0023F01F03E1E75A689B680958013B22F069
:102AFC001F0003444FF0000C062023F01F03D4E703
:102B0C0023780133237001359FE7C1F89830C1F861
:102B1C00A00001339EE74FF0FF30D5E700ED00E059
:102B2C0064AF0000AAFF4400939100200000F0FF66
:102B3C00F0B587B007460E461446002110226846B1
:102B4C001D4607F09FFB02238DF80230054B2A46E9
:102B5C0021466846CDE90476019304F00DFF07B0D9
:102B6C00F0BD00BFE38A000008B5024B1B68984714
:102B7C00002008BDB40C0020034B044A1860937865
:102B8C0043F0020393707047B40C0020080100203E
:102B9C0008B50649064821F00701C1F1005202F5BB
:102BAC003C3205F0D2F9002008BD00BFFFA1002087
:102BBC00B80C002008B5234A234B1A6000F0A4F887
:102BCC004FF47A612148D0F82436C3F30802C3F3DA
:102BDC0009434B4382F480721D49883201FB023356
:102BEC004FF4FA215B00B3FBF1F201FB12331949EC
:102BFC00B3F57A3F28BF0132C1F80429D0F820364A
:102C0C004FF47A60C3F30802C3F30943434342F21F
:102C1C001C5082F4807202F2172200FB02334FF434
:102C2C007A701B0AB3FBF0F200FB1233B3F5FA7F98
:102C3C004FF0010328BF0132C1F81C27C1F8003640
:102C4C00002008BD0020A1073403002000C0FF00B5
:102C5C00F82A00800000125048B1054B054A1B6849
:102C6C00B3FBF2F35843044B43F00103184770478E
:102C7C003403002040420F00C0AE000010B501F03C
:102C8C00E9F9204C206001F0E1F9606001F0E6F90F
:102C9C00FF21A060002001F0E5F96FF07F410120D9
:102CAC0001F0E0F94FF6FF71022001F0DBF90F2182
:102CBC00032001F0D7F9FF21042001F0D3F94FF6DE
:102CCC00FF71052001F0CEF9FF21062001F0CAF9B1
:102CDC000F21072001F0C6F90321002001F0CAF9E9
:102CEC003F21012001F0C6F93F21022001F0C2F979
:102CFC000321084601F0BEF9204601F0A5F800209A
:102D0C0010BD00BFC40C00200122024BC3F80424E8
:102D1C00704700BF002008E0084B70B5C31A0D4681
:102D2C0007499B10044659434022064805F0E7FE2C
:102D3C002B4601462046BDE870401847E40C0020A5
:102D4C00B76DDBB620A40000402373B50B4C009389
:102D5C00041B0B460D460A49A41061430646094A5A
:102D6C00094805F0F7FE011E05DA30462B4602B085
:102D7C00BDE87040184702B070BD00BFE40C0020E5
:102D8C00B76DDBB6C98B000020A40000F8B500229B
:102D9C000121054640F20510FFF71EFC0F4801F01B
:102DAC0077F90446B8B901F093F92F690C49384604
:102DBC0005F043FC031E09DB01263E642D6908491E
:102DCC0005F11C0005F039FC031E02DA1C462046F6
:102DDC00F8BDEE64FBE76FF00404F8E7E98B000044
:102DEC008CAF00001FB500220123CDE902236B46F6
:102DFC00084ACDF800D0CDF804D005F0D8FE002854
:102E0C0005DB43F609520023684602F07BFF05B050
:102E1C005DF804FBDB8B000010B5EFF3118420236D
:102E2C0083F31288BFF36F8F074A136823F00201F4
:102E3C00DB07116002D4012006F0BFF984F311887E
:102E4C00BFF36F8F10BD00BF340D00200C22104B50
:102E5C00014602FB0033002030B4D3E90E529863D4
:102E6C00EFF31180202484F31288BFF36F8F1C6C56
:102E7C0004F0C00444F002041C6480F31188BFF316
:102E8C006F8F1DB12B4630BC0248184730BC7047C1
:102E9C00E40C002020A4000010B4EFF311822023D6
:102EAC0083F31288BFF36F8F1648016841F0020458
:102EBC000460C80707D482F31188BFF36F8F012019
:102ECC0010BC06F072B91049D1F80C14C903F2D534
:102EDC00EFF3118083F31288BFF36F8F0B490B6CE8
:102EEC0003F0C00343F002030B6480F31188BFF3BB
:102EFC006F8F82F31188BFF36F8F002010BCFFF728
:102F0C00A5BF00BF340D002000E01050E40C0020E1
:102F1C002DE9F041012207463449D1E8EF3FC1E8E1
:102F2C00E02F0028F9D133B9314932484B60CB60DE
:102F3C008A6005F095FB7B1E012B28D8012F06D14A
:102F4C002D4BD3F8503403F00303012B1FD006F0A4
:102F5C00DAFD0546E8B9294B1B78D3B104220646A5
:102F6C00254BC3F80823244CDFF89480D4F84C2468
:102F7C00D4F84C34D20315D503F00303012B01D044
:102F8C00012F0FD165B386F31188BFF36F8FBDE8A6
:102F9C00F081EFF31186202383F31288BFF36F8F38
:102FAC000125E0E7BDB1304605F064FDD4F84034AE
:102FBC0013F0FF03DAD1D4F80821002AD6D0C4F8D4
:102FCC000831D4F8083120220123C4F84034C8F861
:102FDC00A0212361CAE70021202003F00BFAE5E7CA
:102FEC000422054BC3F80423D1E700BFE00C0020FA
:102FFC00D00C0020000D002000E01050B6910020F5
:10300C0000E100E008B5074806F04BFD38B1064872
:10301C00FFF7B2FD0448FEF765F8002008BD6FF01D
:10302C001200FBE7A0A40000393000000A2838B5D4
:10303C000446074D04D1AB680D2128465B689847C0
:10304C00AB6803485B68E1B29847204638BD00BFC7
:10305C00A0A400002DE9F04340F206354768D006E5
:10306C0048BF4FF0030C3B7C02EA050558BFC2F386
:10307C00401C87B001F01F06B5F5837F144646EA65
:10308C0043168DF803C046D00DD8062D45D005D873
:10309C00A5B1022D12D06FF0150039E0B5F5807F87
:1030AC00F9D101250AE040F20222954237D0B5F55C
:1030BC00407F36D0B5F5007FEDD1042501232203E6
:1030CC0003FA01F12FD57B685960B86880BB5F2E7D
:1030DC0006F01F034FEA561173D83C4A52F82120D0
:1030EC0084F4803102EB8302D2F88030C1F30041CA
:1030FC00C4F3404423F4706344EA410423F00F0307
:10310C001C4344EA8C0444EA0524C2F880400020A5
:10311C0007B0BDE8F0830925D0E70825CEE70625E2
:10312C00CCE70525CAE7630344BF7B689960CCE70D
:10313C0031460DF1020206F02BFA14F4403F8046A2
:10314C000CD13146B86806F03CFAB8F1000FDED16C
:10315C009DF80210B86801F04DFAD8E74FF000095D
:10316C0001ABCDE90199CDE90439CDF80C9031468C
:10317C00B86803AA06F050F94845C8DB14F40033CC
:10318C0014D09DF8033084F48034C4F300448DF8DB
:10319C000E308DF80C508DF80D404B463146B8680A
:1031AC0003AA01F075F90028CFDAB0E7CDE90433B2
:1031BC000DF1030303933146B86803AA06F02CF90A
:1031CC00F1E7203350F82330FFDE00BFB0AF000032
:1031DC004209022A034670B503D0012A18D0CAB19D
:1031EC0070BD0E4E326951680029F9D0012503F0EB
:1031FC001F030C689D400029F2D08A682A4002D037
:10320C0030464B6898473CB1236821461C46F2E790
:10321C00034EE7E7034EE5E72346F6E780A40000FC
:10322C0060A4000040A4000038B54568A868C0B18F
:10323C0006F0C1F90146A0B9A86801F0A3F904464B
:10324C0088B902460949A86806F09FF9224601216F
:10325C00DB20FFF7C1F92246012140F20D10FFF7E8
:10326C00BBF9002038BD6FF00400FBE7DD31000036
:10327C00F0B545681646A8682A7C01F01F0487B093
:10328C0044EA4214002868D0B6F5001F04D1214648
:10329C0006F0EBF9002051E00020B6F5800F01AAF2
:1032AC000190506039D1B3F1007F14BF0523042382
:1032BC008DF804300023CDE904230393EB680DF162
:1032CC00030723FA01F111F0010139D1B6F1A07F06
:1032DC0036D104F01F035F2C4FEA541003F1200386
:1032EC003ED8214A52F8202052F82330DB0727D44D
:1032FC003A462146A86806F04BF9163018D00297CA
:10330C002146A86803AA06F087F8002816DB0122DC
:10331C002146A86806F057F9BCE7B3F1C06F05D099
:10332C00B3F1007F14BF01230223C1E70323BFE7DE
:10333C003946A86801F068F90028E0DA07B0F0BD5A
:10334C003A462146A86806F023F90028D8D19DF802
:10335C000310A86801F04EF9D2E76FF08500EDE795
:10336C0051F82330FFDE00BFB0AF0000036803F05C
:10337C001F025F2B02604FEA53129ABF024B53F8A5
:10338C0022000020704700BFF8AF00002DE9F04F7D
:10339C001546074640F2FF19DFF868A1DFF868B15F
:1033AC0085B000EB8101B94203D1002005B0BDE826
:1033BC00F08F3A68C2F3C323082BC2F3080400F25F
:1033CC009E804C4508BF4FF0FF34B2F1D05F1AF825
:1033DC0003804FEA126310D2192B12D8DFE803F0E6
:1033EC0014226461292F6111111111111111111184
:1033FC0011111111111167717477382B6AD04E2B82
:10340C0052D06FF08500D1E7C5F80446601C14D08B
:10341C00012603A80394FFF7A9FF039B06FA03F305
:10342C00436004E0C5F80C46621C06D00026324608
:10343C0013E0631CC5F800465FD10437B3E7661C84
:10344C00C5F80446F9D0012603A80394FFF78EFFB4
:10345C000122039B02FA03F383603B68039403F499
:10346C000040002818BF002203A818BF01260193B2
:10347C000092FFF77BFF039C019B00EB8400D0F8CC
:10348C008040C3F3412C009A4FEA082343EA8C0393
:10349C00134304EA0B04234343EA4603C0F8803089
:1034AC00CBE7C5F80846BFE7C5F81046AEE7C5F848
:1034BC006045621C3B68C0D0C3F30043002BC2D0F4
:1034CC00A6E7C5F86445F4E7C5F86845F1E7C5F823
:1034DC006C45EEE703A80394FFF748FF039B00EB52
:1034EC008300D0F8803023F0E04343F08043C0F8F1
:1034FC008030631CA1D0012699E70026A4E76FF069
:10350C00150053E7D3BB0000F0F0FCFF2DE9F041B0
:10351C0004460D46476806F0F6FAA0B9274B1B780F
:10352C008BB14FF02008642663681B68D3F83031E8
:10353C008BBB012005F0BEFD013EF5D10021202002
:10354C0002F058FFEFE72021EFF311831A4681F3C5
:10355C001288BFF36F8F60680068D0F8300120B913
:10356C0083F31188BFF36F8FEEE77B6A00201D7029
:10357C006368796A1B68C3F83C170121C3F84017CC
:10358C00C3F83001D3F83001196582F31188BFF309
:10359C006F8FBDE8F081EFF311831A4688F3128820
:1035AC00BFF36F8F61680968D1F830110029DCD145
:1035BC0083F31188BFF36F8FC0E700BFB691002073
:1035CC002DE9F04745680121D0F81080064600AF80
:1035DC00686B05F019FCE96B481C19D0A86B05F059
:1035EC00FDFC10F1130F04460AD10121334A344873
:1035FC0005F0EBFB6FF012042046BD46BDE8F087EA
:10360C00411D05D101212F4A2D4805F0DEFBF3E7C2
:10361C004FF00109EB6A9847D8F83050D8E90C32D2
:10362C0003EBC2039D420AD308F1280005F041FCCC
:10363C0073680021586B05F0E7FB0024DCE7286871
:10364C0006F02FFA0346B0B92A686C468AB01068A7
:10365C0029796A46D1614FF400711B4D11841B49C5
:10366C00C2E9055042F8101F4FF411511448FEF7EF
:10367C0001F9A546BEE728682979EB88D0F810C077
:10368C00DA07DCF8004054BF43F4B01383F4D013D2
:10369C0023F4801209FA01FEDB07D0F808A04CBF16
:1036AC004EEA040424EA0E04CCF80040DAF80030A8
:1036BC009847041EA0DB0835B0E700BFF7BB00003D
:1036CC0024AE000022BC00003FBC0000040000013E
:1036DC0010B502780346002A63D10C69D4F8802017
:1036EC0032B9E06F6FF07301BDE8104005F004BC17
:1036FC00606F48B1A16F39B1DB682BB1834203D045
:10370C00D4F88C1006F0B1FD236FD4F8802033B1BF
:10371C009A4214D90121234A234805F056FBA36F82
:10372C00D4F8802033B19A4222D901211D4A1E4877
:10373C0005F04BFBE06FBDE8104005F0EFBB9B1AAA
:10374C0023677BB9E36D04F170020833E365236EE4
:10375C0004F16001013B236604F15C0005F041FBC0
:10376C00E066DCE7E36E002BD9D01344E366D6E7C2
:10377C009B1AA3677BB9636E04F178020833636606
:10378C00A36E04F16801013BA36604F1640005F02B
:10379C0028FB6067CEE7636F002BCBD013446367C5
:1037AC00C8E710BD63BC000024AE00002DE9F04F4B
:1037BC008FB09A46436800AFFB608B88064604695D
:1037CC0098048946934632D44FF0FF324FF0FF33C2
:1037DC0004F1380002F096FAC4F82C907568D6F80B
:1037EC0010802B687B6098F8853023B1D8F828308E
:1037FC00994500F0B980B9F804E01EF400631DD0BF
:10380C000121B24AB24805F0E0FA6FF08505A36ACF
:10381C0013B19B889B0405D40023E36204F13800A8
:10382C0002F03CFA28463C37BD46BDE8F08F236CCD
:10383C00002BC9D1E36A9942C6D1CFE71EF0010F24
:10384C0015D06D4688B031686A46A248C2E90501B8
:10385C004FF400719183A04942F8101F4FF4E251CC
:10386C009B48FEF707F8AD466FF01505CFE71EF045
:10387C00080F05D0994A0121954805F0A6FAF3E7FF
:10388C00CEF34513082B01D0954AF4E7D9F8003054
:10389C00BB60BA68934B9A4201D8934AEBE707F1A5
:1038AC00100C04350FCDACE80F000FCDACE80F00B9
:1038BC00D7E90132934294BF7B627A621EF0020F09
:1038CC0095E803000EF004038CE803003AD0002BBB
:1038DC0014BF0323022387F82830CEF3001387F894
:1038EC002930D8F80030D3F80036591C11D01EF00E
:1038FC00020F03F01F027D484FEA5313CEF3400131
:10390C0024D1022B00F2DC8050F8231001239340C9
:10391C008B6098F885302BB1404601F0B1FE002346
:10392C0088F8853033464046714A07F1100105F09E
:10393C0041FF051E13DA01212B466E4A644804F040
:10394C00AEFF64E7003B18BF0123C4E7022B00F273
:10395C00B98050F82310012393404B60D9E7012321
:10396C00C8F8289088F88530012384F88430FB68E7
:10397C00D96B4A1C09D0986B05F058FB743004D1F4
:10398C0002215D4A524805F020FABBF1000F6CD1C0
:10399C00C4F85CB00023236604F1700204F16001EA
:1039AC0004F15C0005F01DFAE066BAF1000F64D179
:1039BC00C4F864A00023A36604F1780204F1680142
:1039CC0004F1640005F00DFA002504F128082A46DC
:1039DC0001216067A565404605F04BFA304605F0BD
:1039EC009DFA2A462B46206E83424ED1002319465F
:1039FC00A56EA94250D19A4238BF1A464FF4FA53D9
:103A0C0003FB02F5A36A47F6122C1B6840F2E73061
:103A1C00B5FBF3F50021C8354FF47A720023E5FBB2
:103A2C000C01FCF725FD04F1480802460B46404604
:103A3C0002F068F90246002835D001212F4A2448AB
:103A4C0005F0C3F900252046C4F8805001F018FE9B
:103A5C006FF07301304684F8855005F04DFA4046FE
:103A6C0002F076F96FF07305D1E6DBF80030E36510
:103A7C00002B8FD0DBF804308DE7DAF8003063666A
:103A8C00002B97D0DAF8043095E7E16D01EBC30118
:103A9C00496801330A44A7E7606E00EBC100406837
:103AAC0001310344A5E7A56D15F1740FCAD0002DA3
:103ABC003FF4ADAE30691146283005F0DAF9A6E6D0
:103ACC008960FFDE00235B60FBE700BF81BC000068
:103ADC0024AE00009BBC000003000001BDBC000034
:103AEC00DCBC000047E801000BBD00006CB000001E
:103AFC00DD3600003CBD000061BD00008BBD000048
:103B0C005F2810B500F01F034FEA50140DD8094A76
:103B1C0052F8242002EB8302D2F88000064B0340BB
:103B2C0043EA8103C2F8803010BD0022203352F8E2
:103B3C002330FFDE78B10000F0F0FCFF70B40D4CC8
:103B4C00D4E90065901B63EB0501400940EAC160B4
:103B5C004101891945EBD065C4E900150024002505
:103B6C000549C1E90023054BC3E9004570BC02F0CF
:103B7C00A1BE00BFB009002098090020A8090020B0
:103B8C0008B500220121E420FEF726FD164A00208C
:103B9C00D2F8183723F44033C2F8183700F066FE19
:103BAC00002820DB0120114900F0ECFE00281ADB74
:103BBC0000F036FE0E4B20F01F00C3E900010D4B48
:103BCC000022C3E900014FF0FF304FF0FF310A4BE8
:103BDC00C3E90001094B0A49187A00F031FE67224B
:103BEC000020084B1A6008BD00200E503003002046
:103BFC00B00900209009002098090020280300201B
:103C0C00493B0000640D002008B500F009FE064A8F
:103C1C00D2E90032C01A054B61EB0201C3E9000185
:103C2C00400940EAC16008BDB0090020A809002085
:103C3C00F7B5224B0146224F187A224BD7E9005692
:103C4C00D3E900239E4208BF954211D1B1F1806F98
:103C5C000ED24901012938BF012101224D1946F12B
:103C6C000006C7E9005603B0BDE8F04000F022BFE3
:103C7C00154BDFF858C0D3E90043DCE9002CA4183D
:103C8C0043EB0C0C4FF0200E22466346C1FB0E2377
:103C9C00954276EB0301C7E900230DD2291B66EB95
:103CAC000C04C82974F10004B4BF01210021009157
:103CBC0000F0C8FE03B0F0BD0021F8E72803002097
:103CCC00A009002098090020B0090020A8090020B4
:103CDC00064BD3F840231C2A05D1D3F84403431ECA
:103CEC005842584170470020704700BF00C0FF0089
:103CFC0003689A070CD50368DB070DD50922074B1F
:103D0C00C3F80C250F22C3F8042501221A60FEE724
:103D1C00034B0360EF3B0360704700BF0080105003
:103D2C00F000FA5008B501233C4A3D48C2F800386F
:103D3C003C4AD2F840231C2A04BF3B4AC2F80C343C
:103D4C00FFF7D6FF0830FFF7D3FF0830FFF7D0FF9F
:103D5C000830FFF7CDFF00F5F470FFF7C9FF334AC9
:103D6C00D2F88C3043F44063C2F88C300022D3007C
:103D7C0003F57F0303F54043D3F8001401310AD057
:103D8C00D3F8001439B1D3F800140132D3F8043449
:103D9C00402A0B60EBD1214BD3F84024002A38D0B9
:103DAC00FFF796FF48B11F4BD3F83423204B9A42B0
:103DBC009EBF1A4B1F4AC3F84026FFF789FF18B164
:103DCC001D4B1E4AC3F8AC27FFF782FF48B13422C3
:103DDC00124BC3F82426D3F83C2622F40022C3F855
:103DEC003C26174B1149D3F80026D20744BF6FF07D
:103DFC000102C3F800260323124AC2F81835D1F881
:103E0C008C3043F44063C1F88C300023C2F8A035E9
:103E1C0008BDC822C3F84024C2E700BF00001250FE
:103E2C0000C50D5000C0FF000030055000ED00E053
:103E3C00001D0A1840E0A91E00A0085078000A04D2
:103E4C0000E0105000B00450014B1860704700BFE8
:103E5C00680D00202DE9F04F584C87B00192226874
:103E6C008842526887BF401A52F8212052F820200D
:103E7C00091A87BF52F82020012652F8212000266B
:103E8C00EFF3118C202181F31288BFF36F8F002187
:103E9C001579A94225D300204FF0010E04AF1179FA
:103EAC0088422CD300208CF31188BFF36F8F00282D
:103EBC0040F08180216886F001070C687106141BA4
:103ECC00E40841EA84610446BF000297B70004ADE0
:103EDC0003971779A74233D8019B196007B0BDE847
:103EEC00F08F106850F8210023B1B3F800E0477848
:103EFC00BE4502D040680068F8B10131C9E71168CD
:103F0C0051F820104BB1B3F800804D78A84504D17E
:103F1C00997807F8011B0130C1E7D1F80480D8F873
:103F2C000050B5FA85F1C1F11F010EFA01F925EA2D
:103F3C000905C8F80050C9B2EBE76FF00B00B2E707
:103F4C00176857F824E09EF80070012F1FD195F8E0
:103F5C00008095F801C015F8017C16B9B946674682
:103F6C00CC46DDF80890DDF80CA0F144F244D9F809
:103F7C000890DAF808A008F1200B4CF0004C47F040
:103F8C00004708F160084AF82BC049F8287004EB88
:103F9C0084072BB19EF801E0B3F800C0E64507D0CA
:103FAC0095F800C00CFA07F739430134013590E756
:103FBC004FF01F0CF6E76FF00B008FE7680D002039
:103FCC0070B5124B840E1B6801261A6800F01F0393
:103FDC0002EBC40152F834201268D46800220D7927
:103FEC00954200D870BD1F2B1CBF06FA03F3C4F812
:103FFC0004350C68023254F8224002EB820320FA9A
:10400C0003F3E46803F01F03E9E700BF680D002029
:10401C0030B50D4B1A68830E126802EBC3020023F5
:10402C0014799C4202D86FF015000AE0156855F817
:10403C0023506D788D4205D103EB8303D84000F0FB
:10404C001F0030BD0133ECE7680D002000487047BD
:10405C00380300200048704784B1000000487047C6
:10406C003CB20000024B03EB00135B681960704715
:10407C003CB20000024B03EB00139B6819607047C5
:10408C003CB20000014B1B68184700BF9C0D002080
:10409C0010B50C4C237993B9012323710A4B0028DA
:1040AC00206018BF184600F0F3F850B92368074891
:1040BC00002B08BF1846BDE8104000F035B86FF073
:1040CC00770010BD9C0D002091400000B3910000C2
:1040DC0008B5074B1B6853B140F20510FEF76EFA9A
:1040EC0028B9BDE8084040F20510FEF745BA08BDF6
:1040FC009C0D002038B504230A4C42F21075C4F80C
:10410C000833012363610023C4F80831D4F8083163
:10411C00D4F84C34DB0304D5012004F0CBFF013D73
:10412C00F6D138BD00E01050064A13793BB9012195
:10413C0010601171044A1846C2F8403470476FF091
:10414C0077007047A40D002000E0105010B51D4BF7
:10415C001D4CD3F84C14D3F84C2411F4803F18D0D8
:10416C0002F00302012A03D00AB1FFF7C3FF0022B9
:10417C00144BC3F840240022C3F80821D3F80821BB
:10418C0001221A61226872B9D3F80821002AFBD0E7
:10419C0011E0D3F84824D107E9D5D3F8502492077D
:1041AC00E3D422681AB10422C3F8042310BDD3F857
:1041BC000821002AFBD00022C3F80821D3F80831CB
:1041CC00F4E700BF00E01050A40D0020F8B5012565
:1041DC00184C194ED4F80C3303F00C0303B9F8BD8A
:1041EC00B3FA83F30027C3F11F039A0002F5807220
:1041FC0092B202F1A04202F58712176005FA03F1A0
:10420C00022B1268D8B2C4F8081310D1D4F84C346D
:10421C00D4F84C349B070AD10423C4F84054C4F896
:10422C0004332561D4F80C3303F00C03D6E7336860
:10423C009847F7E700E01050A40D0020712238B524
:10424C00104B0021C3F80823012242F210745A606B
:10425C00C3F80011D3F800110B490A4DD1F84013E3
:10426C001C2908BFDA60D5F80C3413F4803305D060
:10427C00012004F01FFF013CF5D138BD034A5371F6
:10428C00FBE700BF00E0105000C0FF00AC0D0020A9
:10429C00054B0246187918B91A6001221A71704739
:1042AC006FF07700704700BFAC0D00200022164B5A
:1042BC00C3F81021D3F81011C3F81821D3F8181132
:1042CC00C3F81421D3F814111049D1F840131C2948
:1042DC0004BF01219960C3F80021D3F80021012209
:1042EC001A600B4A126852B9074BD3F80021002A06
:1042FC00FBD00022C3F80021D3F8003170477122A3
:10430C00C3F80423704700BF00E0105000C0FF004A
:10431C00AC0D0020F8B50126194C1A4DD4F80C330D
:10432C0003F0710303B9F8BDB3FA83F30021C3F1B1
:10433C001F039A0002F5807292B202F1A04202F5BC
:10434C008712116006FA03F7042B1268D8B2C4F86E
:10435C00087308D0062B10D02B689847D4F80C3370
:10436C0003F07103DEE702236B71C4F81411D4F867
:10437C0014312023C4F80433EEE76971ECE700BF75
:10438C0000E01050AC0D0020036803F01F025F2BFF
:10439C0002604FEA53129ABF024B53F822000020DE
:1043AC00704700BFBCB20000034A4309D35C00F065
:1043BC001F001844C0B27047D3BD0000F0B50646CC
:1043CC00002487B0114F019117F8012B06AB03EBBA
:1043DC00D20313F8143C02F00702D34013F001038C
:1043EC0006D10134032CEFD10023184607B0F0BDE1
:1043FC00074A03AD07CA85E8070055F824100A6A76
:10440C0046F824200A62002AEBD0EEE7E3BD000058
:10441C009CAE0000F7B504460846FFF7C5FF06B290
:10442C0004EB4606B38A0D46DB072BD5204604F079
:10443C00D0FF2946204604F02BFF58B1204604F04B
:10444C003DFF0022276800B207EB8003C3F810255C
:10445C00C3F810252946204604F059FF002101A875
:10446C00B1820195FFF790FF019B00EB8300D0F820
:10447C008020064B134043F00203C0F880300846FE
:10448C0003B0F0BD6FF01500FAE700BFF0F0FCFFD1
:10449C002DE9F043044685B0084616461D46FFF745
:1044AC0083FF0F46804636B3204604F0FCFE18B955
:1044BC00204604F0EDFE28BB0FFA88F904EB4909FD
:1044CC00B9F8143013F01C0F02D07378012B19D0EB
:1044DC0001238DF80F3000233846CDE90063721CA0
:1044EC00B31C0DF10F0104F07BFEB9F8143043F04E
:1044FC000303A9F81430002D40D03946204604F0AF
:10450C00D2FE20B96FF0150005B0BDE8F083002293
:10451C00297823684FEA810C03EB8103C3F810253B
:10452C00C3F810250FFA88F204EB4202938A23F4A5
:10453C00604323F0200393826E78FEB12468A87840
:10454C006444D4F810550E4B36042B40C4F8103587
:10455C0041F6F07306F4403603EA07130005D4F86D
:10456C001055334300F4801003432B43C4F810352B
:10457C00938A43EA413343F0200393820020C3E73C
:10458C000FE0ECFF70B590F87440054690F875603C
:10459C0044BB46222146143005F074FE2146134AD2
:1045AC002B6852F836608E4212D1002440F20D1066
:1045BC00C3F84441D3F844210D4A934208BFDB2091
:1045CC00FDF7DAFF0123204685F874302B6670BDA9
:1045DC00CAB2920002F58070442A04BF1C501A58CB
:1045EC000131E0E76FF07700F1E700BFC8B20000DF
:1045FC0000A00D5090F87500024B03EB800004F006
:10460C0075BD00BF7003002010B5064B90F8750007
:10461C000C4603EB800004F04FFD0028A4BF207073
:10462C00002010BD700300202DE9F04F814659F891
:10463C00043B8BB0D3F8141390F8754000936C4B7B
:10464C00C9B241F40031804653F83420009804F08C
:10465C0099FE810305463AD50023CDE9073309932A
:10466C00634B07A803EBC4035B6819460193FFF780
:10467C00A5FE042303EBC40303934FF0000B5D4B27
:10468C000DF11C0A0293029A594912F8013B02924D
:10469C00039A02EBD3028A5C03F0070322FA03F3BA
:1046AC00DA071AD40BF1010BBBF1030F0AF1040A60
:1046BC00E9D14FF400310022009804F063FE019917
:1046CC0007A8FFF77BFE0028D7D125F4003501247D
:1046DC00002D75D10BB0BDE8F08F474B5B440493B4
:1046EC00DAF800100029DDD091FAA1F1B1FA81F1CC
:1046FC00049B1C7841EA44142046FFF755FE08EB56
:10470C004000878AC808BB08059301231AF80020CB
:10471C0001F0070103FA01F122EA01020AF8002074
:10472C0006A80694FFF730FE069A059B203250F837
:10473C002220C7F382065B073746C2F3014223D51A
:10474C004846D6B221463A4604F0C2FD06A8069465
:10475C00FFF71AFE069B203350F82330C3F30143B6
:10476C009E4207D10021204604F083FD31462046AD
:10477C0004F07FFD06A80694FFF706FE0122069BB7
:10478C0002FA03F30362ABE7022A0DD103212046A0
:10479C0004F06FFD06F00503012BEBD13A462146E0
:1047AC00484604F095FDE5E702212046059204F009
:1047BC0060FD032EF2D0059A032ADBD1022EECE722
:1047CC0095FAA5F3B3FA83F3009904FA03F225EAF8
:1047DC00020503F5A27251F8222008EB4303484668
:1047EC00B3F86410C2F3014204F072FD70E700BF2D
:1047FC00C8B20000E3BD0000E3BD0000074B027A25
:10480C00D3F8101521F001010A43C3F810250268F2
:10481C00C3F8A4264268C3F8AC26704700200E509B
:10482C004FF0FF326FF0404330B5044CD4E9000137
:10483C00824273EB0105F9D330BD00BF40270E5007
:10484C0030B50C25074B1C1894F8544005FB043369
:10485C00C3E9031218750123034A8340C2F82433B9
:10486C0030BD00BF4000002000200E50F0B53D4D83
:10487C0085B02C78002C6FD13B4A01AB07CA83E87A
:10488C0007003A491846D1F8102522F00202C1F867
:10489C001025FFF7B3FF0723672202F00101214423
:1048AC00013BCCB24FEA5202F7D1052C57D1194635
:1048BC004FF0010C2B4E00246720CFB204E00CFA11
:1048CC0002F220EA0200013490FAA0F25FFA84FEB0
:1048DC00BE45B2FA82F2F2D30131327505292A446F
:1048EC0082F8547006F10C06E5D101210024204811
:1048FC009A0801FA02F212F0670F18BF1C50043329
:10490C00302BF5D1E420FDF737FE184B1949D3F8BD
:10491C00102503F5C07322F00202C3F8902340F671
:10492C00FF72C3F8A82100221A60A3F5807004332B
:10493C008B420260F8D101240C4B0F4A1C660F4BC2
:10494C005D201B68B3FBF2F358430D4B2343984790
:10495C0000202C7005B0F0BD6FF07700FAE76FF017
:10496C008B00F7E740000020A8AE000000200E509E
:10497C0000210E50B0210E5040420F003403002095
:10498C00D0AE000073B52B4C0546636801A803F04C
:10499C0001030E46019304F08FFB00283FDB00233C
:1049AC0020753370636823F001036360A36843F0E0
:1049BC000103A360204BD3F81025900733D4D3F810
:1049CC00102542F00202C3F81025C5B1D3F84827D0
:1049DC0012F0010202BFD3F8481741F00101C3F8ED
:1049EC004817154BD3F84017D3F844174900F9D49E
:1049FC002AB9D3F8482722F00102C3F848270F4BF5
:104A0C000F4A1B68B3FBF2F30B4A03EB43136BB176
:104A1C00D2F84017D2F8440710F0804001D102B010
:104A2C0070BD013BF3E76FF07700F8E76FF07300B0
:104A3C00F5E700BF4000002000200E50340300209A
:104A4C0040420F0070B51D461446184A9DF8106080
:104A5C00131893F8543000B20C3302EBC30142F834
:104A6C0033404D60C5F31301AEB10201104E02F19B
:104A7C00A04202F562228000C2F820450644C2F82A
:104A8C002415336833B1FFF7CBFEA042A94101D204
:104A9C000023336070BD030103F1A04303F56223CF
:104AAC00C3F82045C3F82415F4E700BF40000020EC
:104ABC0000210E50F0B50E4D2B1893F85430000118
:104ACC000C3355F8334005EBC3077E68641800F1CE
:104ADC00A04021F0004146F1000641EAC27100F508
:104AEC00622045F833407E60C0F82815F0BD00BF49
:104AFC0040000020F7B5284B284CD3F82C6304F168
:104B0C0088070EB903B0F0BD96FAA6F00123B0FAEF
:104B1C0080F08340DA43224926EA0306231893F8EF
:104B2C005450830019440C2303FB0543DB6873B317
:104B3C00D7E8EF3F03EA020CC7E8EECFBEF1000F57
:104B4C00F6D1C340DB0719D5020102F1A04202F5F0
:104B5C006222D2F82435D2F82025D1F800C0BCF15D
:104B6C00000FCED04FF0000CC1F800C00C2101FB9F
:104B7C00054529690091E9688847C2E705F10C03EE
:104B8C0004EBC30C54F83320DCF80430E5E70A6876
:104B9C00002AB6D00B60B4E700200E504000002075
:104BAC0000210E50044B40EA0120C3F80005D3F855
:104BBC000024D207FBD5704700B0045080F080036E
:104BCC00032BA0F1800203D8054B53F82200704749
:104BDC0007289ABF034B53F820004FF0FF30704763
:104BEC00D8B20000E8B2000030B50B4B012493F8AA
:104BFC00625000220823204203D0254208D0013203
:104C0C00D2B2013B4FEA4404F5D118460A7030BDCC
:104C1C006FF01500FBE700BFB40D0020054B93F8B7
:104C2C006000431E012B03D9043818BF01207047C4
:104C3C0000207047B40D0020002010B5154A16490D
:104C4C00C2F8000591F86140D2F8043381F8604055
:104C5C000C6823F033030CB143F02303C2F81C019E
:104C6C00D2F81C41C2F81801D2F81841C2F8080158
:104C7C00D2F8082191F86520D00791F8662048BF3A
:104C8C0043F08003D207034A48BF43F04003C2F805
:104C9C00003310BD00500D50B40D002070B5002332
:104CAC0001264FF0FF340D4A92F8621018B90BB17F
:104CBC0082F8621070BD90FAA0F3B3FA83F306FA8F
:104CCC0003F5043342F8334002EBC3035C6020EA83
:104CDC000500012321EA0501E8E700BFB40D00201F
:104CEC0073B50023044601AA0E464FF4807101935C
:104CFC0004F0C2FC4FF48A71204604F0BDFC4FF462
:104D0C0082710546204604F0B7FC20B11EB115B1E6
:104D1C00144BD3F8343601AA4FF48471204604F0B6
:104D2C00ABFC4FF48671204604F0A6FC4FF488715E
:104D3C00204604F0A1FC0C4B234083B14FF48E753C
:104D4C00294601AA204604F097FC291F0835204665
:104D5C0089B2ADB204F090FCB5F5AE7FF0D10198FC
:104D6C0002B070BD00500D50C0FF3F002DE9F04166
:104D7C000146477A90F80480857A007AFFF71EFF87
:104D8C00421C03D16FF01500BDE8F0811E4C2E1DA6
:104D9C00B8F1010F44F8360033D13846FFF70EFF57
:104DAC00431CEFD004EBC60670604B780A781B03EB
:104DBC00120202F4E06203F4805348881343134A4E
:104DCC0002EA004213438A790020120702F0E04203
:104DDC0013434A79D20202F4006213430A79D203D4
:104DEC0092B213432A0102F1502202F55022C2F86A
:104DFC001835012294F86230AA40134384F86230CB
:104E0C00C2E74FF0FF30CDE7B40D00200000FF01EA
:104E1C00F0B50025314C059E84F8655084F8665039
:104E2C00A5602561266084F86300A5832C4CC4F82A
:104E3C00F015C4F8F42516B32322C4F8002300257A
:104E4C004FF0010C254F264E0CFA05F2024005F1ED
:104E5C00510417D1210106EB04147250626006EB69
:104E6C000514D4F81815013521F4006141EAC22269
:104E7C00082DC4F8182507F10807E5D1F0BDC4F8D2
:104E8C000063DCE7D7E90821B2F1FF3F23D05FEAEA
:104E9C00123E05BF4FEA521E02F01F02A2F58052CD
:104EAC0042EA0E2214BF42F0004242F080424FEA26
:104EBC00041E46F80E204A1C0FBF00214A0901F0BF
:104ECC001F0141EA022118BF41F0804106EB041496
:104EDC001A466160C3E70022E9E700BFB40D002069
:104EEC0000500D5070B51F4D95F86040002C36D118
:104EFC000126FF2085F86060FFF7D0FE1A4B1B4996
:104F0C00C3F80041D3F80021C3F80441D3F80421BD
:104F1C00C3F81041D3F81021C3F81441D3F814315D
:104F2C001C239A0806FA02F212F0330F1FBFA3F1EA
:104F3C00AF22A2F57202146012681A1F920806FAC8
:104F4C0002F212F0330F1CBF5C505A5808335C2B22
:104F5C00E7D1D520FDF710FB0020286070BD6FF065
:104F6C007700FBE7B40D002000500D50FC500D50A5
:104F7C002DE9F0410646FFF751FE0D460446C8B92F
:104F8C00FF20FFF78BFE0C27DFF83480E3B29D4245
:104F9C0001D800200CE007FB036098F86230827A9D
:104FAC001341DB0709D4FFF7E1FE01340028EDD0F3
:104FBC00BDE8F0816FF00F00FAE76FF01500F7E72E
:104FCC00B40D00202DE9FF4707469946FFF726FE52
:104FDC008A461446064600283DD138460DF10F018D
:104FEC00FFF702FE054638BB63889DF80F803BB384
:104FFC00B8F1010F32D8B9F1000F2FD022786378B5
:10500C0012B1B3FA83F6760951463846CDF80090C2
:10501C00FFF7FEFE6388134A0BB143F48053C2F8CA
:10502C00F835114B83F86480227983F8686083F833
:10503C006720042283F86020284604B0BDE8F0877E
:10504C0022786378002ADFD0002BDDD1B8F1010F74
:10505C0004D80126D8E76FF00F05EDE76FF0850552
:10506C00EAE700BF00500D50B40D002030B51E4AC9
:10507C000446136973BB00F06043B3F1005F2CD19D
:10508C0092F86450B1FBF5F305FB131040BB0BB267
:10509C00002B25DD92F86030052B06D8032B0CD89D
:1050AC00022B0FD06FF0760030BD062BFAD10F4BD0
:1050BC004D00C3F82C46C3F8305693683BB1C2E997
:1050CC000441F1E78D420BD1C2E90245ECE7C2E99C
:1050DC000241E9E76FF07700E6E76FF00C00E3E7D9
:1050EC006FF00600E0E700BFB40D002000500D503B
:1050FC002DE9F341564CA368002B00F0A58094F8E1
:10510C006020022A06D0042A37D06FF0760002B055
:10511C00BDE8F08101204F4AC2F80005E16825681E
:10512C0081404DB1032584F86050C2F82C36C2F88A
:10513C00301610600020EAE7C2F82C36C2F83016A0
:10514C00106000210120FFF7CBFD0028F9D00123CE
:10515C00404C414D636029460220FFF7C1FD0028F9
:10516C00F9D00023C4F80831D4F80821C4F80C3164
:10517C00D4F80C21C4F80035DCE70120354AC2F81C
:10518C000005216839B1052184F86010E168C2F886
:10519C002C368140CBE794F86410A58B019103EB7E
:1051AC00450349000093C2F82C36C2F83016106043
:1051BC0000210120FFF794FD0028F9D094F8683005
:1051CC0063BB0123234D6B6069460220FFF788FD0A
:1051DC000028F9D00023C5F80831D5F80821C5F806
:1051EC000C31D5F80C21A18B94F864200A44E168A9
:1051FC0092B28A42A28321BF174AA383D2E9020149
:10520C00C2E900014FF0000224BF23611846114B84
:10521C0038BF6FF00F00C3F8002578E74FF0010896
:10522C0000260C4FD7F8F455EDB208FA05F5013D00
:10523C00B542C6D9C7F8048000210420FFF750FD01
:10524C000028F9D00136F3E76FF00B005FE700BFE1
:10525C00B40D002000500D50BC0D00207FB5332044
:10526C006549FFF73DFD10F0100F0546624E0BD05F
:10527C001022624BC3F80823B218C3F82C26042260
:10528C00C3F8302601221A605D4CAA0694F86030EF
:10529C0010D5072B07D0594BD3F83436C3F34E0334
:1052AC00E36000232361554BD3F80433DB0601D5AF
:1052BC00FFF7C2FCA8071AD50023A16894F8602058
:1052CC000291E168062A8DF80430ADF80C101AD062
:1052DC00072A39D0032A0AD1484AC2F80035C2F845
:1052EC000035022384F86030236801A89847E90749
:1052FC0052D594F86030033B042B4DD8DFE803F013
:10530C005D4C2B44610094F8673023B1236913B1D1
:10531C0001223A4B1A60236801A89847394B93E84D
:10532C000300002386E803002361A368002BDED171
:10533C00324AC2F80035C2F80035042384F86030D4
:10534C0005238DF80430CFE7FFF776FC02238DF8A8
:10535C0004306368C9E7042301A88DF8043023687E
:10536C009847264BD3F8F825D20444BF01225A6043
:10537C000623216984F8603031B163691F4A5B00F0
:10538C00C2F82C16C2F8303623692BB9032301A8B6
:10539C008DF804302368984794F86030072B0AD0B6
:1053AC00164B1948D3F8043300211840FFF798FC2A
:1053BC00012685094DB904B070BD01220F4B5A600E
:1053CC00EAE701220D4B9A60E6E795FAA5F3B3FAEA
:1053DC0083F306FA03F225EA02055A08DB4303F0CD
:1053EC0001038DF809308DF8046023688DF80820CE
:1053FC0001A89847DEE700BFBC0D002000500D50FF
:10540C00B40D0020C40D0020C0FF3F00036803F062
:10541C001F025F2B02604FEA53129ABF024B53F8E4
:10542C0022000020704700BF08B3000010B50C4BE1
:10543C0004680C4A0C48844208BF1A46B2FBF1F3CC
:10544C0001FB13229A4208D213F0010005D17E2BE6
:10545C0002D8581E18BF012010BD0020FCE700BF69
:10546C000020A1070024F40000A0045037B5144616
:10547C00421C054618D0012902D1BBB104F066F9D3
:10548C0001A80195FFF7C2FF019B0A4A00EB8300BC
:10549C00D0F88050A30043EA41030B432A40134346
:1054AC0043F4A063C0F8803003B030BD04F05AF967
:1054BC00E6E700BFF0F0FCFF2DE9F84F91F8213042
:1054CC0005460C46002B00F0A08091F8228029683C
:1054DC005B485C4F5C4A6369814208BF1746B7FB67
:1054EC00F3F75A4BD3F840331C2B13D1022F95F8FA
:1054FC00223040F28D80227E12F0FD0F40F0888029
:10550C007A080132D2B2904538BF904643F0080376
:10551C0085F8223094F8232095F8223062F30003AA
:10552C0085F82230227CDBB262F3410385F822300D
:10553C0094F823600EBB237E0121012B94BF002322
:10554C00012332462068FFF791FF334632466068EC
:10555C00FFF78CFF33463146A27EA068FFF786FF2B
:10556C000121237C3246E06883F00103FFF77EFFC4
:10557C000B463246E069FFF779FF94F82130002B97
:10558C0049D04FF0FF336B6294F8211094F812E07D
:10559C00207E627E002948D0E668217C94F8249015
:1055AC0094F820C02B68B9F1000F12D1D4E900BADD
:1055BC00D4F80890E469C3F800B6C3F804A6C3F89D
:1055CC000896C3F80C46C3F81066C3F8B815C3F8B0
:1055DC00B085003A18BF01220228C3F8C0E5C3F811
:1055EC002C7525D0032826D0012801D142F00202C7
:1055FC00C3F85425C3F8ACC56B68FBB12868BDE88B
:10560C00F84FC0F30830FCF7B7BF4FF002085EE765
:10561C006FF3C3037CE7E3686B62227C95F822305E
:10562C0062F3410385F82230AEE74FF0FF36B5E761
:10563C0042F00402DCE742F00602D9E7BDE8F88F3D
:10564C0000A004500024F4000020A10700C0FF00BB
:10565C00431C07B50ED0019001A8FFF7D7FE019BA4
:10566C0000EB8300D0F88020044B134043F002037E
:10567C00C0F8803003B05DF804FB00BFF0F0FCFF15
:10568C0038B504460068C0F30830FCF783FF636844
:10569C0043B12146154A51F8043BC3F8082320684E
:1056AC0004F06CF82368D3F80006D3F80416D3F88A
:1056BC00085694F82230DB0714D4FFF7C9FF2846AC
:1056CC00FFF7C6FF0846FFF7C3FF606AFFF7C0FF8E
:1056DC002368D3F80C06D3F81016FFF7B9FF084669
:1056EC00FFF7B6FF002384F8203038BD0700F81F01
:1056FC0070B5234B02680D689A423CD0214E224C67
:10570C00224BB24218BF1C46B4FBF5F305FB134603
:10571C009EBBA54231D85C1E1C402ED1B3F5007F38
:10572C002BD893FAA3F3B3FA83F3D2F804654D792B
:10573C00097926F0030601F003013143C2F8041580
:10574C00D2F8081505F0030521F003012943C2F82E
:10575C000815C2F81035006800F5A07300F5B0729A
:10576C001C6053F8041B9342FAD1C0F30830FCF7C9
:10577C0003FF002070BD064CC6E76FF01500F9E77B
:10578C0000500550005008500048E8010024F40077
:10579C000020A10730B50E4A03689342D3F8105588
:1057AC0013D002F54032934214BF10232023A1FBE7
:1057BC000312C5F12004A5F12000E94002FA04F41B
:1057CC00214322FA00F0084330BD8023EFE700BFED
:1057DC000050055010B50446FBF77CFF034801212F
:1057EC00034A03F053F8204604F066F914AE0000A7
:1057FC00E6BD00002DE9F84304460D4600AFEFF37B
:10580C001188202383F31288BFF36F8F0428294A51
:10581C0098BF294BE9468AB09668117C98BF53F81B
:10582C0020306A4688BF254BC2E9073140F201336C
:10583C0023489384234BC2E9050442F8103F00230C
:10584C004FF431512048FCF715F8CD4645B1EB69C2
:10585C00C3F3080323B101211C4A1B4803F016F8BB
:10586C002EB1304604F055F908B1037803B9184845
:10587C00E9468AB06A46174BD061C2E9053640F258
:10588C0001331384144B42F8103F00234FF4115191
:10589C000D48FBF7EFFF2946CD462046FFF79AFF50
:1058AC0088F31188BFF36F8F3046FCF709FEBD46B5
:1058BC00BDE8F883200E002014B30000F5BD0000F5
:1058CC000BBE00000500000114AE000033BE00004A
:1058DC0003BE000054BE00000400000138B50A4BA2
:1058EC0053F82040013053F82050A54200D838BD61
:1058FC00606830B1037FDB0701D404F0BAF80834D8
:10590C00F3E723689847FAE728B30000012270B543
:10591C00294B032086B01A70FFF7E0FFFCF76EFAF4
:10592C000420FFF7DBFF254C254D2646AE4204F143
:10593C00300410D300F08EFC204C224EAC4226D307
:10594C0000F09CFCFAF758FF1F4A137B23F001036D
:10595C00137306B070BD54F80C3C059354F8103C0E
:10596C00049354F8143C039354F8183C029354F8E1
:10597C001C3C019354F8203C009354E90A2354E94D
:10598C000C0100F02FFA54F8303C5E65CDE7D4E9F9
:10599C000A23B3F1FF3F08BFB2F1FF3F05D052EA33
:1059AC000301206803D100F053FD3034C6E73146C3
:1059BC00183000F0EFFEF8E7B691002078AD00004B
:1059CC0078AD00001D9C0000780A0020C02370B543
:1059DC00144E86B003FB0066134B012205930F2374
:1059EC00CDE903320023CDE9013314234FF4A07227
:1059FC000E4D0F4903FB0055044602FB00110D4BE5
:105A0C003046009500F0EEF9737B2C7423F0040300
:105A1C007373094B013403EBC423EE606B6006B067
:105A2C0070BD00BFB8090020B6BE0000200E0020DB
:105A3C00B89C0020D59A0000B8940020BFB5002077
:105A4C00FFF74CFF294B03F5006282F3088883F3C0
:105A5C000A880024E023264D264F85F82230EC7767
:105A6C002C766C76AC7685F820406B6A43F4E02398
:105A7C006B6285F82340FCF79DFCFCF723FE4FF08E
:105A8C00FF33AB62EB62FCF7C5FFFCF743FEFBF7A1
:105A9C007FFD194800F03AFA0120FFF71FFF0220A2
:105AAC00164DFFF71BFF00F01DFC154B15495D61F2
:105ABC00154B4FF48062059301232846CDE903432F
:105ACC00CDE901443B46009400F08CF906466A7B14
:105ADC00284622F004026A7304F057F82046FFF7B8
:105AEC0075FF3A4631462846FCF7CAFDB8940020AB
:105AFC0000ED00E019590000380B0020780A002056
:105B0C00200E0020F89D0020BBBE00002DE9F341C3
:105B1C00044617461E46EFF31188202383F31288A0
:105B2C00BFF36F8FC368334A7BB18068916888423A
:105B3C0019D057EA060318D188F31188BFF36F8F79
:105B4C006FF00F0002B0BDE8F081916891F90E1072
:105B5C000133E36093682161A36088F31188BFF37C
:105B6C006F8F0020EEE72169F2E791F90E1090F9A2
:105B7C000E306FF07E029942A8BF19469142B8BF11
:105B8C0011468B422DDD03F0AAFF05462246414605
:105B9C00CDE90076184800F0A3FA0028E1D0EFF325
:105BAC001186202383F31288BFF36F8FA068D0B1C6
:105BBC00236821699C420AD04BB193F90E3099426B
:105BCC00A8BF19466FF07E039942B8BF194603F07F
:105BDC0086FF40B13146084800F016FB6FF00A0012
:105BEC00B0E70025D2E7002DF4D186F31188BFF37E
:105BFC006F8FF3E7200E0020B7910020F8B5836873
:105C0C000546002B40D0234A926893423FD1C3688B
:105C1C00012B03D9013BC3600020F8BDEFF31187C2
:105C2C00202383F31288BFF36F8F0169806803F020
:105C3C0056FF2C68AC4207D10023C5E9023387F329
:105C4C001188BFF36F8FE7E7002CF5D0D4E9003251
:105C5C00002613605A60637BC4E9006623F00203DC
:105C6C006373A66004F1180004F032F8AC6094F988
:105C7C000E3020462B61C4F8BC6003F086FF394619
:105C8C00054800F0C1FAC7E76FF01500C5E74FF003
:105C9C00FF30C2E7200E0020B791002070B5EFF363
:105CAC001186202383F31288BFF36F8F0468A04200
:105CBC001BD0D4B1D4E90032002513605A60637B49
:105CCC00C4E9005523F002036373A56004F11800C6
:105CDC0003F0FEFF2046C4F8BC5003F056FF3146DB
:105CEC00BDE87040064800F08FBAD0E902329A4203
:105CFC0018BF0133836086F31188BFF36F8F70BDBB
:105D0C00B791002013B5EFF31181202484F312888E
:105D1C00BFF36F8F846844B1013C846081F31188B8
:105D2C00BFF36F8F002002B010BD52EA030406D1FE
:105D3C0081F31188BFF36F8F6FF00F00F3E7CDE99C
:105D4C0000230246014800F0CBF9ECE7B7910020A4
:105D5C002DE9F0410546EFF31187202383F31288D8
:105D6C00BFF36F8F00236FF00A081E462C68A54204
:105D7C0016D0ACB1D4E9003213605A60637BC4E92D
:105D8C00006623F002036373A66004F1180003F0AD
:105D9C009FFF2046C4F8BC8003F0F7FE0123E5E723
:105DAC000022AA602BB13946BDE8F041044800F04E
:105DBC002BBA87F31188BFF36F8FBDE8F08100BF5A
:105DCC00B791002010B5044608B9054B9C681F22FA
:105DDC0004F1840004F05EFA002084F8A30010BDE6
:105DEC00200E00202DE9F04F984685B000F15803A5
:105DFC00C0E91633129B002503730423D61D26F02D
:105E0C0007064373119B01EB060A0F46C0E90655C2
:105E1C00514685608373C5730446DDF838B0DDF8F0
:105E2C004C90FCF781F8109B073020F00700C4E978
:105E3C002976C4F8AC0002930F9BAAEB0006CDE9BF
:105E4C0000B33246434639462046FCF7FDFB0F9B18
:105E5C00C4E91C8BA367109B656584F86C50E367E1
:105E6C00EFF31183202282F31288BFF36F8F104F50
:105E7C003A6A3C62C4F8802083F31188BFF36F8FB9
:105E8C00B9F1000F11D01F22494604F1840004F02F
:105E9C0001FA84F8A350BB680BB1D3F8B03030468C
:105EAC00C4F8B03005B0BDE8F08F84F88490F2E708
:105EBC00200E0020F0B5002587B00595109DDDE97A
:105ECC00127604950F9D044603950E9D02950D9D2B
